{"contracts/NarcolepsyEarlyWarning.sol":{"NarcolepsyEarlyWarning":{"abi":[{"inputs":[],"stateMutability":"nonpayable","type":"constructor"},{"anonymous":false,"inputs":[{"indexed":true,"internalType":"address","name":"reporter","type":"address"},{"indexed":false,"internalType":"uint256","name":"episodeId","type":"uint256"},{"indexed":false,"internalType":"uint8","name":"episodeType","type":"uint8"}],"name":"EpisodeReported","type":"event"},{"anonymous":false,"inputs":[{"indexed":true,"internalType":"address","name":"user","type":"address"}],"name":"UserRegistered","type":"event"},{"inputs":[{"internalType":"uint256","name":"_episodeId","type":"uint256"},{"internalType":"bool","name":"_tempChange","type":"bool"},{"internalType":"bool","name":"_dizziness","type":"bool"},{"internalType":"bool","name":"_nausea","type":"bool"},{"internalType":"bool","name":"_tingling","type":"bool"},{"internalType":"bool","name":"_headache","type":"bool"},{"internalType":"bool","name":"_blurredVision","type":"bool"},{"internalType":"bool","name":"_moodChange","type":"bool"},{"internalType":"bool","name":"_cognitiveSlowing","type":"bool"},{"internalType":"bool","name":"_muscleWeakness","type":"bool"},{"internalType":"bool","name":"_restlessness","type":"bool"}],"name":"addSymptoms","outputs":[],"stateMutability":"nonpayable","type":"function"},{"inputs":[{"internalType":"uint256","name":"","type":"uint256"}],"name":"episodeSymptoms","outputs":[{"internalType":"bool","name":"suddenTempChange","type":"bool"},{"internalType":"bool","name":"dizziness","type":"bool"},{"internalType":"bool","name":"nausea","type":"bool"},{"internalType":"bool","name":"tingling","type":"bool"},{"internalType":"bool","name":"headache","type":"bool"},{"internalType":"bool","name":"blurredVision","type":"bool"},{"internalType":"bool","name":"moodChange","type":"bool"},{"internalType":"bool","name":"cognitiveSlowing","type":"bool"},{"internalType":"bool","name":"muscleWeakness","type":"bool"},{"internalType":"bool","name":"restlessness","type":"bool"}],"stateMutability":"view","type":"function"},{"inputs":[{"internalType":"uint256","name":"","type":"uint256"}],"name":"episodes","outputs":[{"internalType":"uint8","name":"episodeType","type":"uint8"},{"internalType":"uint8","name":"episodeSeverity","type":"uint8"},{"internalType":"uint256","name":"episodeTimestamp","type":"uint256"},{"internalType":"uint8","name":"stressLevel","type":"uint8"},{"internalType":"uint8","name":"sleepQualityLastNight","type":"uint8"},{"internalType":"uint8","name":"timeOfDay","type":"uint8"},{"internalType":"uint8","name":"warningTimeMinutes","type":"uint8"},{"internalType":"uint8","name":"confidenceLevel","type":"uint8"},{"internalType":"uint8","name":"ageRange","type":"uint8"},{"internalType":"uint8","name":"yearsSinceDiagnosis","type":"uint8"},{"internalType":"uint8","name":"overallSeverity","type":"uint8"},{"internalType":"bool","name":"hadCaffeine","type":"bool"},{"internalType":"bool","name":"hadMeal","type":"bool"}],"stateMutability":"view","type":"function"},{"inputs":[{"internalType":"uint256","name":"_episodeId","type":"uint256"}],"name":"getEpisode","outputs":[{"components":[{"internalType":"uint8","name":"episodeType","type":"uint8"},{"internalType":"uint8","name":"episodeSeverity","type":"uint8"},{"internalType":"uint256","name":"episodeTimestamp","type":"uint256"},{"internalType":"uint8","name":"stressLevel","type":"uint8"},{"internalType":"uint8","name":"sleepQualityLastNight","type":"uint8"},{"internalType":"uint8","name":"timeOfDay","type":"uint8"},{"internalType":"uint8","name":"warningTimeMinutes","type":"uint8"},{"internalType":"uint8","name":"confidenceLevel","type":"uint8"},{"internalType":"uint8","name":"ageRange","type":"uint8"},{"internalType":"uint8","name":"yearsSinceDiagnosis","type":"uint8"},{"internalType":"uint8","name":"overallSeverity","type":"uint8"},{"internalType":"bool","name":"hadCaffeine","type":"bool"},{"internalType":"bool","name":"hadMeal","type":"bool"}],"internalType":"struct NarcolepsyEarlyWarning.EpisodeReport","name":"","type":"tuple"}],"stateMutability":"view","type":"function"},{"inputs":[{"internalType":"uint256","name":"_episodeId","type":"uint256"}],"name":"getEpisodeSymptoms","outputs":[{"components":[{"internalType":"bool","name":"suddenTempChange","type":"bool"},{"internalType":"bool","name":"dizziness","type":"bool"},{"internalType":"bool","name":"nausea","type":"bool"},{"internalType":"bool","name":"tingling","type":"bool"},{"internalType":"bool","name":"headache","type":"bool"},{"internalType":"bool","name":"blurredVision","type":"bool"},{"internalType":"bool","name":"moodChange","type":"bool"},{"internalType":"bool","name":"cognitiveSlowing","type":"bool"},{"internalType":"bool","name":"muscleWeakness","type":"bool"},{"internalType":"bool","name":"restlessness","type":"bool"}],"internalType":"struct NarcolepsyEarlyWarning.Symptoms","name":"","type":"tuple"}],"stateMutability":"view","type":"function"},{"inputs":[],"name":"getSymptomFrequencies","outputs":[{"internalType":"uint256","name":"tempChangeCount","type":"uint256"},{"internalType":"uint256","name":"dizzinessCount","type":"uint256"},{"internalType":"uint256","name":"nauseaCount","type":"uint256"},{"internalType":"uint256","name":"tinglingCount","type":"uint256"},{"internalType":"uint256","name":"headacheCount","type":"uint256"},{"internalType":"uint256","name":"totalEpisodes","type":"uint256"}],"stateMutability":"view","type":"function"},{"inputs":[],"name":"getTotalEpisodes","outputs":[{"internalType":"uint256","name":"","type":"uint256"}],"stateMutability":"view","type":"function"},{"inputs":[],"name":"getWarningTimeStats","outputs":[{"internalType":"uint256","name":"averageWarningTime","type":"uint256"},{"internalType":"uint256","name":"episodesWithWarning","type":"uint256"},{"internalType":"uint256","name":"totalEpisodes","type":"uint256"}],"stateMutability":"view","type":"function"},{"inputs":[],"name":"owner","outputs":[{"internalType":"address","name":"","type":"address"}],"stateMutability":"view","type":"function"},{"inputs":[],"name":"registerParticipant","outputs":[],"stateMutability":"nonpayable","type":"function"},{"inputs":[{"internalType":"address","name":"","type":"address"}],"name":"registeredUsers","outputs":[{"internalType":"bool","name":"","type":"bool"}],"stateMutability":"view","type":"function"},{"inputs":[{"internalType":"uint8","name":"_episodeType","type":"uint8"},{"internalType":"uint8","name":"_severity","type":"uint8"},{"internalType":"uint8","name":"_stressLevel","type":"uint8"},{"internalType":"uint8","name":"_sleepQuality","type":"uint8"},{"internalType":"uint8","name":"_timeOfDay","type":"uint8"},{"internalType":"uint8","name":"_warningMinutes","type":"uint8"},{"internalType":"uint8","name":"_confidence","type":"uint8"},{"internalType":"uint8","name":"_ageRange","type":"uint8"},{"internalType":"uint8","name":"_yearsSinceDiagnosis","type":"uint8"},{"internalType":"uint8","name":"_overallSeverity","type":"uint8"},{"internalType":"bool","name":"_hadCaffeine","type":"bool"},{"internalType":"bool","name":"_hadMeal","type":"bool"}],"name":"reportEpisode","outputs":[{"internalType":"uint256","name":"episodeId","type":"uint256"}],"stateMutability":"nonpayable","type":"function"},{"inputs":[{"internalType":"uint8","name":"_episodeType","type":"uint8"},{"internalType":"uint8","name":"_severity","type":"uint8"},{"internalType":"uint8","name":"_stressLevel","type":"uint8"},{"internalType":"uint8","name":"_sleepQuality","type":"uint8"},{"internalType":"uint8","name":"_timeOfDay","type":"uint8"},{"internalType":"uint8","name":"_warningMinutes","type":"uint8"},{"internalType":"uint8","name":"_confidence","type":"uint8"},{"internalType":"uint8","name":"_ageRange","type":"uint8"},{"internalType":"uint8","name":"_yearsSinceDiagnosis","type":"uint8"},{"internalType":"uint8","name":"_overallSeverity","type":"uint8"},{"internalType":"bool","name":"_hadCaffeine","type":"bool"},{"internalType":"bool","name":"_hadMeal","type":"bool"},{"internalType":"bool","name":"_tempChange","type":"bool"},{"internalType":"bool","name":"_dizziness","type":"bool"},{"internalType":"bool","name":"_nausea","type":"bool"},{"internalType":"bool","name":"_tingling","type":"bool"},{"internalType":"bool","name":"_headache","type":"bool"},{"internalType":"bool","name":"_blurredVision","type":"bool"},{"internalType":"bool","name":"_moodChange","type":"bool"},{"internalType":"bool","name":"_cognitiveSlowing","type":"bool"},{"internalType":"bool","name":"_muscleWeakness","type":"bool"},{"internalType":"bool","name":"_restlessness","type":"bool"}],"name":"reportEpisodeComplete","outputs":[],"stateMutability":"nonpayable","type":"function"},{"inputs":[],"name":"surveyActive","outputs":[{"internalType":"bool","name":"","type":"bool"}],"stateMutability":"view","type":"function"},{"inputs":[],"name":"toggleSurvey","outputs":[],"stateMutability":"nonpayable","type":"function"},{"inputs":[],"name":"totalParticipants","outputs":[{"internalType":"uint256","name":"","type":"uint256"}],"stateMutability":"view","type":"function"},{"inputs":[{"internalType":"address","name":"newOwner","type":"address"}],"name":"transferOwnership","outputs":[],"stateMutability":"nonpayable","type":"function"},{"inputs":[{"internalType":"address","name":"","type":"address"}],"name":"userEpisodeCount","outputs":[{"internalType":"uint256","name":"","type":"uint256"}],"stateMutability":"view","type":"function"}],"evm":{"bytecode":{"linkReferences":{},"object":"60808060405234610035576006805460ff19166001179055600480546001600160a01b03191633179055611597908161003b8239f35b600080fdfe60808060405260048036101561001457600080fd5b600091823560e01c9081630e50cee514610c005750806323a4e56314610a365780632a2ba0bf146108d15780632b1543b8146108965780633e2ffae5146107b357806353e81649146106fe5780635864d596146106c25780637423ed041461056857806386f328a9146104a35780638da5cb5b1461047c57806390abd5eb146103d4578063a26dbf26146103b6578063b43b46eb1461025b578063b52363aa14610238578063ccfc811b1461021c578063ecfec1e714610191578063f0a5e92e146101715763f2fde38b146100e857600080fd5b3461016d57602036600319011261016d5780356001600160a01b03818116918290036101695761011d83549182163314611515565b8115610133576001600160a01b03191617905580f35b60405162461bcd60e51b8152602081850152600f60248201526e496e76616c6964206164647265737360881b6044820152606490fd5b8380fd5b5080fd5b823461018e578060031936011261018e5760209054604051908152f35b80fd5b823461018e5761018036600319011261018e5760206102146101b1610c63565b6101b9610c73565b6101c1610c83565b6101c9610c93565b6101d1610ca3565b6101d9610cb3565b6101e1610cc3565b906101ea610cd3565b926101f3610ce3565b946101fc610cf4565b96610205610c3e565b9861020e610c53565b9a610e21565b604051908152f35b823461018e578060031936011261018e57610235610d78565b80f35b823461018e578060031936011261018e57602060ff600654166040519015158152f35b503461016d57602090816003193601126103b257916101409235604061027f61136b565b92808452808585015280828501528060608501528060808501528060a08501528060c08501528060e085015261010092818486015281610120809601526102c88254821061138c565b81526001855220906102d861136b565b9154809260ff80831615159687835280830190828560081c161515825260408401838660101c16151581526060850190848760181c161515825260808601928588821c161515845260a0870194868960281c161515865260c0880196808a60301c16151588528c60e08a0199828c60381c1615158b52828d82019c60401c1615158c52019b60481c1615158b526040519c8d52511515908c015251151560408b015251151560608a0152511515608089015251151560a088015251151560c087015251151560e08601525115159084015251151590820152f35b8280fd5b823461018e578060031936011261018e576020600554604051908152f35b503461016d57602036600319011261016d5761014091604091358152600160205220546040519060ff9081811615158352818160081c1615156020840152818160101c1615156040840152818160181c1615156060840152818160201c1615156080840152818160281c16151560a0840152818160301c16151560c0840152818160381c16151560e0840152818160401c16151561010084015260481c161515610120820152f35b503461016d578160031936011261016d57546040516001600160a01b039091168152602090f35b503461016d57602036600319011261016d573590805482101561018e576101a06104cc83610d05565b508054600260018301549201546040519260ff8381809516865260081c16602085015260408401528181166060840152818160081c166080840152818160101c1660a0840152818160181c1660c0840152818160201c1660e0840152818160281c16610100840152818160301c16610120840152818160381c16610140840152818160401c16151561016084015260481c161515610180820152f35b823461018e576102c036600319011261018e57610583610c63565b61058b610c73565b610593610c83565b61059b610c93565b6105a3610ca3565b906105ac610cb3565b926105b5610cc3565b946105be610cd3565b6105c6610ce3565b6105ce610cf4565b6105d6610c3e565b996105df610c53565b610184359b8c15158d036106be576101a4359384151585036106ba576101c4359586151587036106b6576101e4359788151589036106b15761020435151561020435036106b15761022435151561022435036106b15761024435151561024435036106b15761026435151561026435036106b15761028435151561028435036106b1576102a43515156102a435036106b15760065460ff1661068090610dd5565b6102a4359e610284359e610264359e610244359e610224359e610204359e6106a79b610e21565b996102359a6113d1565b508f80fd5b8f80fd5b8e80fd5b8d80fd5b503461016d578160031936011261016d57546106e8906001600160a01b03163314611515565b60065460ff80821615169060ff19161760065580f35b503461016d5761016036600319011261016d576024359081151582036103b25760443580151581036101695760643580151581036107af5760843580151581036107ab5760a43580151581036107a75760c4359081151582036107a35760e43592831515840361079f576101043594851515860361079b57610124359687151588036107975761023599610790610c3e565b99356113d1565b8a80fd5b8980fd5b8880fd5b8780fd5b8680fd5b8580fd5b8480fd5b50903461018e578060031936011261018e578054818080805b8481106108215750821580156107f4575b606086868660405192835260208301526040820152f35b909192945061080e575060609350829004913880806107dd565b634e487b7160e01b815260128552602490fd5b61082a81610d05565b5060ff60028092015481601891821c16610850575b50505061084b90610d53565b6107cc565b90919561085f90959395610d53565b9561086986610d05565b500154901c168101809111610883579161084b388061083f565b634e487b7160e01b825260118752602482fd5b503461016d57602036600319011261016d57356001600160a01b0381169081900361016d578160409160209352600283522054604051908152f35b823461018e578060031936011261018e578054819081808080805b858110610919575060c09650604051958652602086015260408501526060840152608083015260a0820152f35b8088526020600181526040892061092e61136b565b90549060ff90818316151580825284820191838560081c16151583526101206040820194808760101c16151586526060830196818160181c16151588528181608086019a1c1615158952818160281c16151560a0850152818160301c16151560c0850152818160381c16151560e0850152818160401c16151561010085015260481c161515910152610a26575b51610a16575b51610a06575b516109f6575b516109e1575b6109dc90610d53565b6108ec565b936109ee6109dc91610d53565b9490506109d3565b93610a0090610d53565b936109cd565b93610a1090610d53565b936109c7565b93610a2090610d53565b936109c1565b99610a3090610d53565b996109bb565b503461016d57602036600319011261016d576101a091610ab4610ab992359180610180610a6161134a565b8281528260208201528260408201528260608201528260808201528260a08201528260c08201528260e082015282610100820152826101208201528261014082015282610160820152015254821061138c565b610d05565b50610180610ac561134a565b60ff60028454948286168452828660081c1660208501526001810154604085015201548181166060840152818160081c166080840152818160101c1660a0840152818160181c1660c0840152818160201c1660e0840152818160281c16610100840152818160301c16610120840152818160381c16610140840152818160401c16151561016084015260481c1615158282015260ff6040519316835260ff60208201511660208401526040810151604084015260ff606082015116606084015260ff608082015116608084015260ff60a08201511660a084015260ff60c08201511660c084015260ff60e08201511660e084015260ff6101008201511661010084015260ff6101208201511661012084015260ff61014082015116610140840152610160810151151561016084015201511515610180820152f35b919050346103b25760203660031901126103b257356001600160a01b038116908190036103b25760408360ff92602095526003855220541615158152f35b61014435908115158203610c4e57565b600080fd5b61016435908115158203610c4e57565b6004359060ff82168203610c4e57565b6024359060ff82168203610c4e57565b6044359060ff82168203610c4e57565b6064359060ff82168203610c4e57565b6084359060ff82168203610c4e57565b60a4359060ff82168203610c4e57565b60c4359060ff82168203610c4e57565b60e4359060ff82168203610c4e57565b610104359060ff82168203610c4e57565b610124359060ff82168203610c4e57565b906000918254811015610d3f57600390838052027f290decd9548b62a8d60345a988386fc84ba6bc95484008f6362f93160ef3e563019190565b634e487b7160e01b83526032600452602483fd5b6000198114610d625760010190565b634e487b7160e01b600052601160045260246000fd5b3360005260036020526040600020805460ff811615610d95575050565b60ff19166001179055600554610daa90610d53565b600555337f54db7a5cb4735e1aac1f53db512d3390390bb6637bd30ad4bf9fc98667d9b9b9600080a2565b15610ddc57565b60405162461bcd60e51b815260206004820152601c60248201527f5375727665792069732063757272656e746c7920696e616374697665000000006044820152606490fd5b9a9894929693909997959199610e3b60ff60065416610dd5565b600160ff8d1610158061133c575b156113005760ff169960018b1015806112f5575b156112bd5760ff16966001881015806112b2575b156112765760ff169060018210158061126b575b1561122e5760ff1691601783116111f35760ff16936001851015806111e8575b156111ae5760ff16946001861015806111a3575b1561116a5760ff169660018810158061115f575b1561111a57610eda61134a565b9a60ff8d168c5260208c01524260408c015260608b015260808a015260a089015260ff1660c088015260e087015261010086015260ff16610120850152610140840152151561016083015215156101808201526000546801000000000000000081101561110457806001610f519201600055610d05565b6110ee5781518154602084015161ff00600891821b811660ff94851661ffff199485161717855560408601516001860155606086015160029095018054608088015190931b90911694909316911617919091178155611067916101809060a0810151835463ff00000060c084015160181b1664ff0000000060e085015160201b1665ff000000000061010086015160281b169166ff00000000000061012087015160301b169362ff000060ff60381b61014089015160381b169660101b169067ffffffffffff00001916171717171717835561104b6101608201511515849060ff60401b825491151560401b169060ff60401b1916179055565b0151815460ff60481b191690151560481b60ff60481b16179055565b600054600019810191908211610d6257336000526002602052604060002061108f8154610d53565b905533600052600360205260ff60406000205416156110e1575b60ff604051918383521660208201527fbdeff1e317d92167948d89c90f200479ef8f5aec5761bcb17804dbcfb2f729db60403392a290565b6110e9610d78565b6110a9565b634e487b7160e01b600052600060045260246000fd5b634e487b7160e01b600052604160045260246000fd5b60405162461bcd60e51b815260206004820152601860248201527f496e76616c6964206f766572616c6c20736576657269747900000000000000006044820152606490fd5b50600a881115610ecd565b60405162461bcd60e51b8152602060048201526011602482015270496e76616c6964206167652072616e676560781b6044820152606490fd5b506005861115610eb9565b60405162461bcd60e51b8152602060048201526012602482015271496e76616c696420636f6e666964656e636560701b6044820152606490fd5b50600a851115610ea5565b60405162461bcd60e51b8152602060048201526013602482015272496e76616c69642074696d65206f662064617960681b6044820152606490fd5b60405162461bcd60e51b8152602060048201526015602482015274496e76616c696420736c656570207175616c69747960581b6044820152606490fd5b50600a821115610e85565b60405162461bcd60e51b8152602060048201526014602482015273125b9d985b1a59081cdd1c995cdcc81b195d995b60621b6044820152606490fd5b50600a881115610e71565b60405162461bcd60e51b815260206004820152601060248201526f496e76616c696420736576657269747960801b6044820152606490fd5b50600a8b1115610e5d565b60405162461bcd60e51b8152602060048201526014602482015273496e76616c696420657069736f6465207479706560601b6044820152606490fd5b50600460ff8d161115610e49565b604051906101a0820182811067ffffffffffffffff82111761110457604052565b60405190610140820182811067ffffffffffffffff82111761110457604052565b1561139357565b60405162461bcd60e51b8152602060048201526016602482015275115c1a5cdbd91948191bd95cc81b9bdd08195e1a5cdd60521b6044820152606490fd5b999897959391969492909960005481106113ea9061138c565b6113f261136b565b9a15158b5260208b01971515885260408b01911515825260608b01921515835260808b01931515845260a08b01941515855260c08b01951515865260e08b0196151587526101008b0198151589526101208b019915158a526000526001602052604060002099511515968a549051151560081b61ff00169151151560101b62ff0000169251151560181b63ff000000169351151560201b64ff00000000169451151560281b65ff0000000000169551151560301b66ff000000000000169651151560381b60ff60381b169760ff169067ffffffffffffffff1916171717171717171783555115156114fa90839060ff60401b825491151560401b169060ff60401b1916179055565b51815460ff60481b191690151560481b60ff60481b16179055565b1561151c57565b60405162461bcd60e51b815260206004820152601860248201527f4f6e6c79206f776e65722063616e2063616c6c207468697300000000000000006044820152606490fdfea2646970667358221220255a3619493a6b3b2cd9b7e3221bc0bcf3ff495cf851945d338ae1255f71887e64736f6c63430008130033","opcodes":"PUSH1 0x80 DUP1 PUSH1 0x40 MSTORE CALLVALUE PUSH2 0x35 JUMPI PUSH1 0x6 DUP1 SLOAD PUSH1 0xFF NOT AND PUSH1 0x1 OR SWAP1 SSTORE PUSH1 0x4 DUP1 SLOAD PUSH1 0x1 PUSH1 0x1 PUSH1 0xA0 SHL SUB NOT AND CALLER OR SWAP1 SSTORE PUSH2 0x1597 SWAP1 DUP2 PUSH2 0x3B DUP3 CODECOPY RETURN JUMPDEST PUSH1 0x0 DUP1 REVERT INVALID PUSH1 0x80 DUP1 PUSH1 0x40 MSTORE PUSH1 0x4 DUP1 CALLDATASIZE LT ISZERO PUSH2 0x14 JUMPI PUSH1 0x0 DUP1 REVERT JUMPDEST PUSH1 0x0 SWAP2 DUP3 CALLDATALOAD PUSH1 0xE0 SHR SWAP1 DUP2 PUSH4 0xE50CEE5 EQ PUSH2 0xC00 JUMPI POP DUP1 PUSH4 0x23A4E563 EQ PUSH2 0xA36 JUMPI DUP1 PUSH4 0x2A2BA0BF EQ PUSH2 0x8D1 JUMPI DUP1 PUSH4 0x2B1543B8 EQ PUSH2 0x896 JUMPI DUP1 PUSH4 0x3E2FFAE5 EQ PUSH2 0x7B3 JUMPI DUP1 PUSH4 0x53E81649 EQ PUSH2 0x6FE JUMPI DUP1 PUSH4 0x5864D596 EQ PUSH2 0x6C2 JUMPI DUP1 PUSH4 0x7423ED04 EQ PUSH2 0x568 JUMPI DUP1 PUSH4 0x86F328A9 EQ PUSH2 0x4A3 JUMPI DUP1 PUSH4 0x8DA5CB5B EQ PUSH2 0x47C JUMPI DUP1 PUSH4 0x90ABD5EB EQ PUSH2 0x3D4 JUMPI DUP1 PUSH4 0xA26DBF26 EQ PUSH2 0x3B6 JUMPI DUP1 PUSH4 0xB43B46EB EQ PUSH2 0x25B JUMPI DUP1 PUSH4 0xB52363AA EQ PUSH2 0x238 JUMPI DUP1 PUSH4 0xCCFC811B EQ PUSH2 0x21C JUMPI DUP1 PUSH4 0xECFEC1E7 EQ PUSH2 0x191 JUMPI DUP1 PUSH4 0xF0A5E92E EQ PUSH2 0x171 JUMPI PUSH4 0xF2FDE38B EQ PUSH2 0xE8 JUMPI PUSH1 0x0 DUP1 REVERT JUMPDEST CALLVALUE PUSH2 0x16D JUMPI PUSH1 0x20 CALLDATASIZE PUSH1 0x3 NOT ADD SLT PUSH2 0x16D JUMPI DUP1 CALLDATALOAD PUSH1 0x1 PUSH1 0x1 PUSH1 0xA0 SHL SUB DUP2 DUP2 AND SWAP2 DUP3 SWAP1 SUB PUSH2 0x169 JUMPI PUSH2 0x11D DUP4 SLOAD SWAP2 DUP3 AND CALLER EQ PUSH2 0x1515 JUMP JUMPDEST DUP2 ISZERO PUSH2 0x133 JUMPI PUSH1 0x1 PUSH1 0x1 PUSH1 0xA0 SHL SUB NOT AND OR SWAP1 SSTORE DUP1 RETURN JUMPDEST PUSH1 0x40 MLOAD PUSH3 0x461BCD PUSH1 0xE5 SHL DUP2 MSTORE PUSH1 0x20 DUP2 DUP6 ADD MSTORE PUSH1 0xF PUSH1 0x24 DUP3 ADD MSTORE PUSH15 0x496E76616C69642061646472657373 PUSH1 0x88 SHL PUSH1 0x44 DUP3 ADD MSTORE PUSH1 0x64 SWAP1 REVERT JUMPDEST DUP4 DUP1 REVERT JUMPDEST POP DUP1 REVERT JUMPDEST DUP3 CALLVALUE PUSH2 0x18E JUMPI DUP1 PUSH1 0x3 NOT CALLDATASIZE ADD SLT PUSH2 0x18E JUMPI PUSH1 0x20 SWAP1 SLOAD PUSH1 0x40 MLOAD SWAP1 DUP2 MSTORE RETURN JUMPDEST DUP1 REVERT JUMPDEST DUP3 CALLVALUE PUSH2 0x18E JUMPI PUSH2 0x180 CALLDATASIZE PUSH1 0x3 NOT ADD SLT PUSH2 0x18E JUMPI PUSH1 0x20 PUSH2 0x214 PUSH2 0x1B1 PUSH2 0xC63 JUMP JUMPDEST PUSH2 0x1B9 PUSH2 0xC73 JUMP JUMPDEST PUSH2 0x1C1 PUSH2 0xC83 JUMP JUMPDEST PUSH2 0x1C9 PUSH2 0xC93 JUMP JUMPDEST PUSH2 0x1D1 PUSH2 0xCA3 JUMP JUMPDEST PUSH2 0x1D9 PUSH2 0xCB3 JUMP JUMPDEST PUSH2 0x1E1 PUSH2 0xCC3 JUMP JUMPDEST SWAP1 PUSH2 0x1EA PUSH2 0xCD3 JUMP JUMPDEST SWAP3 PUSH2 0x1F3 PUSH2 0xCE3 JUMP JUMPDEST SWAP5 PUSH2 0x1FC PUSH2 0xCF4 JUMP JUMPDEST SWAP7 PUSH2 0x205 PUSH2 0xC3E JUMP JUMPDEST SWAP9 PUSH2 0x20E PUSH2 0xC53 JUMP JUMPDEST SWAP11 PUSH2 0xE21 JUMP JUMPDEST PUSH1 0x40 MLOAD SWAP1 DUP2 MSTORE RETURN JUMPDEST DUP3 CALLVALUE PUSH2 0x18E JUMPI DUP1 PUSH1 0x3 NOT CALLDATASIZE ADD SLT PUSH2 0x18E JUMPI PUSH2 0x235 PUSH2 0xD78 JUMP JUMPDEST DUP1 RETURN JUMPDEST DUP3 CALLVALUE PUSH2 0x18E JUMPI DUP1 PUSH1 0x3 NOT CALLDATASIZE ADD SLT PUSH2 0x18E JUMPI PUSH1 0x20 PUSH1 0xFF PUSH1 0x6 SLOAD AND PUSH1 0x40 MLOAD SWAP1 ISZERO ISZERO DUP2 MSTORE RETURN JUMPDEST POP CALLVALUE PUSH2 0x16D JUMPI PUSH1 0x20 SWAP1 DUP2 PUSH1 0x3 NOT CALLDATASIZE ADD SLT PUSH2 0x3B2 JUMPI SWAP2 PUSH2 0x140 SWAP3 CALLDATALOAD PUSH1 0x40 PUSH2 0x27F PUSH2 0x136B JUMP JUMPDEST SWAP3 DUP1 DUP5 MSTORE DUP1 DUP6 DUP6 ADD MSTORE DUP1 DUP3 DUP6 ADD MSTORE DUP1 PUSH1 0x60 DUP6 ADD MSTORE DUP1 PUSH1 0x80 DUP6 ADD MSTORE DUP1 PUSH1 0xA0 DUP6 ADD MSTORE DUP1 PUSH1 0xC0 DUP6 ADD MSTORE DUP1 PUSH1 0xE0 DUP6 ADD MSTORE PUSH2 0x100 SWAP3 DUP2 DUP5 DUP7 ADD MSTORE DUP2 PUSH2 0x120 DUP1 SWAP7 ADD MSTORE PUSH2 0x2C8 DUP3 SLOAD DUP3 LT PUSH2 0x138C JUMP JUMPDEST DUP2 MSTORE PUSH1 0x1 DUP6 MSTORE KECCAK256 SWAP1 PUSH2 0x2D8 PUSH2 0x136B JUMP JUMPDEST SWAP2 SLOAD DUP1 SWAP3 PUSH1 0xFF DUP1 DUP4 AND ISZERO ISZERO SWAP7 DUP8 DUP4 MSTORE DUP1 DUP4 ADD SWAP1 DUP3 DUP6 PUSH1 0x8 SHR AND ISZERO ISZERO DUP3 MSTORE PUSH1 0x40 DUP5 ADD DUP4 DUP7 PUSH1 0x10 SHR AND ISZERO ISZERO DUP2 MSTORE PUSH1 0x60 DUP6 ADD SWAP1 DUP5 DUP8 PUSH1 0x18 SHR AND ISZERO ISZERO DUP3 MSTORE PUSH1 0x80 DUP7 ADD SWAP3 DUP6 DUP9 DUP3 SHR AND ISZERO ISZERO DUP5 MSTORE PUSH1 0xA0 DUP8 ADD SWAP5 DUP7 DUP10 PUSH1 0x28 SHR AND ISZERO ISZERO DUP7 MSTORE PUSH1 0xC0 DUP9 ADD SWAP7 DUP1 DUP11 PUSH1 0x30 SHR AND ISZERO ISZERO DUP9 MSTORE DUP13 PUSH1 0xE0 DUP11 ADD SWAP10 DUP3 DUP13 PUSH1 0x38 SHR AND ISZERO ISZERO DUP12 MSTORE DUP3 DUP14 DUP3 ADD SWAP13 PUSH1 0x40 SHR AND ISZERO ISZERO DUP13 MSTORE ADD SWAP12 PUSH1 0x48 SHR AND ISZERO ISZERO DUP12 MSTORE PUSH1 0x40 MLOAD SWAP13 DUP14 MSTORE MLOAD ISZERO ISZERO SWAP1 DUP13 ADD MSTORE MLOAD ISZERO ISZERO PUSH1 0x40 DUP12 ADD MSTORE MLOAD ISZERO ISZERO PUSH1 0x60 DUP11 ADD MSTORE MLOAD ISZERO ISZERO PUSH1 0x80 DUP10 ADD MSTORE MLOAD ISZERO ISZERO PUSH1 0xA0 DUP9 ADD MSTORE MLOAD ISZERO ISZERO PUSH1 0xC0 DUP8 ADD MSTORE MLOAD ISZERO ISZERO PUSH1 0xE0 DUP7 ADD MSTORE MLOAD ISZERO ISZERO SWAP1 DUP5 ADD MSTORE MLOAD ISZERO ISZERO SWAP1 DUP3 ADD MSTORE RETURN JUMPDEST DUP3 DUP1 REVERT JUMPDEST DUP3 CALLVALUE PUSH2 0x18E JUMPI DUP1 PUSH1 0x3 NOT CALLDATASIZE ADD SLT PUSH2 0x18E JUMPI PUSH1 0x20 PUSH1 0x5 SLOAD PUSH1 0x40 MLOAD SWAP1 DUP2 MSTORE RETURN JUMPDEST POP CALLVALUE PUSH2 0x16D JUMPI PUSH1 0x20 CALLDATASIZE PUSH1 0x3 NOT ADD SLT PUSH2 0x16D JUMPI PUSH2 0x140 SWAP2 PUSH1 0x40 SWAP2 CALLDATALOAD DUP2 MSTORE PUSH1 0x1 PUSH1 0x20 MSTORE KECCAK256 SLOAD PUSH1 0x40 MLOAD SWAP1 PUSH1 0xFF SWAP1 DUP2 DUP2 AND ISZERO ISZERO DUP4 MSTORE DUP2 DUP2 PUSH1 0x8 SHR AND ISZERO ISZERO PUSH1 0x20 DUP5 ADD MSTORE DUP2 DUP2 PUSH1 0x10 SHR AND ISZERO ISZERO PUSH1 0x40 DUP5 ADD MSTORE DUP2 DUP2 PUSH1 0x18 SHR AND ISZERO ISZERO PUSH1 0x60 DUP5 ADD MSTORE DUP2 DUP2 PUSH1 0x20 SHR AND ISZERO ISZERO PUSH1 0x80 DUP5 ADD MSTORE DUP2 DUP2 PUSH1 0x28 SHR AND ISZERO ISZERO PUSH1 0xA0 DUP5 ADD MSTORE DUP2 DUP2 PUSH1 0x30 SHR AND ISZERO ISZERO PUSH1 0xC0 DUP5 ADD MSTORE DUP2 DUP2 PUSH1 0x38 SHR AND ISZERO ISZERO PUSH1 0xE0 DUP5 ADD MSTORE DUP2 DUP2 PUSH1 0x40 SHR AND ISZERO ISZERO PUSH2 0x100 DUP5 ADD MSTORE PUSH1 0x48 SHR AND ISZERO ISZERO PUSH2 0x120 DUP3 ADD MSTORE RETURN JUMPDEST POP CALLVALUE PUSH2 0x16D JUMPI DUP2 PUSH1 0x3 NOT CALLDATASIZE ADD SLT PUSH2 0x16D JUMPI SLOAD PUSH1 0x40 MLOAD PUSH1 0x1 PUSH1 0x1 PUSH1 0xA0 SHL SUB SWAP1 SWAP2 AND DUP2 MSTORE PUSH1 0x20 SWAP1 RETURN JUMPDEST POP CALLVALUE PUSH2 0x16D JUMPI PUSH1 0x20 CALLDATASIZE PUSH1 0x3 NOT ADD SLT PUSH2 0x16D JUMPI CALLDATALOAD SWAP1 DUP1 SLOAD DUP3 LT ISZERO PUSH2 0x18E JUMPI PUSH2 0x1A0 PUSH2 0x4CC DUP4 PUSH2 0xD05 JUMP JUMPDEST POP DUP1 SLOAD PUSH1 0x2 PUSH1 0x1 DUP4 ADD SLOAD SWAP3 ADD SLOAD PUSH1 0x40 MLOAD SWAP3 PUSH1 0xFF DUP4 DUP2 DUP1 SWAP6 AND DUP7 MSTORE PUSH1 0x8 SHR AND PUSH1 0x20 DUP6 ADD MSTORE PUSH1 0x40 DUP5 ADD MSTORE DUP2 DUP2 AND PUSH1 0x60 DUP5 ADD MSTORE DUP2 DUP2 PUSH1 0x8 SHR AND PUSH1 0x80 DUP5 ADD MSTORE DUP2 DUP2 PUSH1 0x10 SHR AND PUSH1 0xA0 DUP5 ADD MSTORE DUP2 DUP2 PUSH1 0x18 SHR AND PUSH1 0xC0 DUP5 ADD MSTORE DUP2 DUP2 PUSH1 0x20 SHR AND PUSH1 0xE0 DUP5 ADD MSTORE DUP2 DUP2 PUSH1 0x28 SHR AND PUSH2 0x100 DUP5 ADD MSTORE DUP2 DUP2 PUSH1 0x30 SHR AND PUSH2 0x120 DUP5 ADD MSTORE DUP2 DUP2 PUSH1 0x38 SHR AND PUSH2 0x140 DUP5 ADD MSTORE DUP2 DUP2 PUSH1 0x40 SHR AND ISZERO ISZERO PUSH2 0x160 DUP5 ADD MSTORE PUSH1 0x48 SHR AND ISZERO ISZERO PUSH2 0x180 DUP3 ADD MSTORE RETURN JUMPDEST DUP3 CALLVALUE PUSH2 0x18E JUMPI PUSH2 0x2C0 CALLDATASIZE PUSH1 0x3 NOT ADD SLT PUSH2 0x18E JUMPI PUSH2 0x583 PUSH2 0xC63 JUMP JUMPDEST PUSH2 0x58B PUSH2 0xC73 JUMP JUMPDEST PUSH2 0x593 PUSH2 0xC83 JUMP JUMPDEST PUSH2 0x59B PUSH2 0xC93 JUMP JUMPDEST PUSH2 0x5A3 PUSH2 0xCA3 JUMP JUMPDEST SWAP1 PUSH2 0x5AC PUSH2 0xCB3 JUMP JUMPDEST SWAP3 PUSH2 0x5B5 PUSH2 0xCC3 JUMP JUMPDEST SWAP5 PUSH2 0x5BE PUSH2 0xCD3 JUMP JUMPDEST PUSH2 0x5C6 PUSH2 0xCE3 JUMP JUMPDEST PUSH2 0x5CE PUSH2 0xCF4 JUMP JUMPDEST PUSH2 0x5D6 PUSH2 0xC3E JUMP JUMPDEST SWAP10 PUSH2 0x5DF PUSH2 0xC53 JUMP JUMPDEST PUSH2 0x184 CALLDATALOAD SWAP12 DUP13 ISZERO ISZERO DUP14 SUB PUSH2 0x6BE JUMPI PUSH2 0x1A4 CALLDATALOAD SWAP4 DUP5 ISZERO ISZERO DUP6 SUB PUSH2 0x6BA JUMPI PUSH2 0x1C4 CALLDATALOAD SWAP6 DUP7 ISZERO ISZERO DUP8 SUB PUSH2 0x6B6 JUMPI PUSH2 0x1E4 CALLDATALOAD SWAP8 DUP9 ISZERO ISZERO DUP10 SUB PUSH2 0x6B1 JUMPI PUSH2 0x204 CALLDATALOAD ISZERO ISZERO PUSH2 0x204 CALLDATALOAD SUB PUSH2 0x6B1 JUMPI PUSH2 0x224 CALLDATALOAD ISZERO ISZERO PUSH2 0x224 CALLDATALOAD SUB PUSH2 0x6B1 JUMPI PUSH2 0x244 CALLDATALOAD ISZERO ISZERO PUSH2 0x244 CALLDATALOAD SUB PUSH2 0x6B1 JUMPI PUSH2 0x264 CALLDATALOAD ISZERO ISZERO PUSH2 0x264 CALLDATALOAD SUB PUSH2 0x6B1 JUMPI PUSH2 0x284 CALLDATALOAD ISZERO ISZERO PUSH2 0x284 CALLDATALOAD SUB PUSH2 0x6B1 JUMPI PUSH2 0x2A4 CALLDATALOAD ISZERO ISZERO PUSH2 0x2A4 CALLDATALOAD SUB PUSH2 0x6B1 JUMPI PUSH1 0x6 SLOAD PUSH1 0xFF AND PUSH2 0x680 SWAP1 PUSH2 0xDD5 JUMP JUMPDEST PUSH2 0x2A4 CALLDATALOAD SWAP15 PUSH2 0x284 CALLDATALOAD SWAP15 PUSH2 0x264 CALLDATALOAD SWAP15 PUSH2 0x244 CALLDATALOAD SWAP15 PUSH2 0x224 CALLDATALOAD SWAP15 PUSH2 0x204 CALLDATALOAD SWAP15 PUSH2 0x6A7 SWAP12 PUSH2 0xE21 JUMP JUMPDEST SWAP10 PUSH2 0x235 SWAP11 PUSH2 0x13D1 JUMP JUMPDEST POP DUP16 DUP1 REVERT JUMPDEST DUP16 DUP1 REVERT JUMPDEST DUP15 DUP1 REVERT JUMPDEST DUP14 DUP1 REVERT JUMPDEST POP CALLVALUE PUSH2 0x16D JUMPI DUP2 PUSH1 0x3 NOT CALLDATASIZE ADD SLT PUSH2 0x16D JUMPI SLOAD PUSH2 0x6E8 SWAP1 PUSH1 0x1 PUSH1 0x1 PUSH1 0xA0 SHL SUB AND CALLER EQ PUSH2 0x1515 JUMP JUMPDEST PUSH1 0x6 SLOAD PUSH1 0xFF DUP1 DUP3 AND ISZERO AND SWAP1 PUSH1 0xFF NOT AND OR PUSH1 0x6 SSTORE DUP1 RETURN JUMPDEST POP CALLVALUE PUSH2 0x16D JUMPI PUSH2 0x160 CALLDATASIZE PUSH1 0x3 NOT ADD SLT PUSH2 0x16D JUMPI PUSH1 0x24 CALLDATALOAD SWAP1 DUP2 ISZERO ISZERO DUP3 SUB PUSH2 0x3B2 JUMPI PUSH1 0x44 CALLDATALOAD DUP1 ISZERO ISZERO DUP2 SUB PUSH2 0x169 JUMPI PUSH1 0x64 CALLDATALOAD DUP1 ISZERO ISZERO DUP2 SUB PUSH2 0x7AF JUMPI PUSH1 0x84 CALLDATALOAD DUP1 ISZERO ISZERO DUP2 SUB PUSH2 0x7AB JUMPI PUSH1 0xA4 CALLDATALOAD DUP1 ISZERO ISZERO DUP2 SUB PUSH2 0x7A7 JUMPI PUSH1 0xC4 CALLDATALOAD SWAP1 DUP2 ISZERO ISZERO DUP3 SUB PUSH2 0x7A3 JUMPI PUSH1 0xE4 CALLDATALOAD SWAP3 DUP4 ISZERO ISZERO DUP5 SUB PUSH2 0x79F JUMPI PUSH2 0x104 CALLDATALOAD SWAP5 DUP6 ISZERO ISZERO DUP7 SUB PUSH2 0x79B JUMPI PUSH2 0x124 CALLDATALOAD SWAP7 DUP8 ISZERO ISZERO DUP9 SUB PUSH2 0x797 JUMPI PUSH2 0x235 SWAP10 PUSH2 0x790 PUSH2 0xC3E JUMP JUMPDEST SWAP10 CALLDATALOAD PUSH2 0x13D1 JUMP JUMPDEST DUP11 DUP1 REVERT JUMPDEST DUP10 DUP1 REVERT JUMPDEST DUP9 DUP1 REVERT JUMPDEST DUP8 DUP1 REVERT JUMPDEST DUP7 DUP1 REVERT JUMPDEST DUP6 DUP1 REVERT JUMPDEST DUP5 DUP1 REVERT JUMPDEST POP SWAP1 CALLVALUE PUSH2 0x18E JUMPI DUP1 PUSH1 0x3 NOT CALLDATASIZE ADD SLT PUSH2 0x18E JUMPI DUP1 SLOAD DUP2 DUP1 DUP1 DUP1 JUMPDEST DUP5 DUP2 LT PUSH2 0x821 JUMPI POP DUP3 ISZERO DUP1 ISZERO PUSH2 0x7F4 JUMPI JUMPDEST PUSH1 0x60 DUP7 DUP7 DUP7 PUSH1 0x40 MLOAD SWAP3 DUP4 MSTORE PUSH1 0x20 DUP4 ADD MSTORE PUSH1 0x40 DUP3 ADD MSTORE RETURN JUMPDEST SWAP1 SWAP2 SWAP3 SWAP5 POP PUSH2 0x80E JUMPI POP PUSH1 0x60 SWAP4 POP DUP3 SWAP1 DIV SWAP2 CODESIZE DUP1 DUP1 PUSH2 0x7DD JUMP JUMPDEST PUSH4 0x4E487B71 PUSH1 0xE0 SHL DUP2 MSTORE PUSH1 0x12 DUP6 MSTORE PUSH1 0x24 SWAP1 REVERT JUMPDEST PUSH2 0x82A DUP2 PUSH2 0xD05 JUMP JUMPDEST POP PUSH1 0xFF PUSH1 0x2 DUP1 SWAP3 ADD SLOAD DUP2 PUSH1 0x18 SWAP2 DUP3 SHR AND PUSH2 0x850 JUMPI JUMPDEST POP POP POP PUSH2 0x84B SWAP1 PUSH2 0xD53 JUMP JUMPDEST PUSH2 0x7CC JUMP JUMPDEST SWAP1 SWAP2 SWAP6 PUSH2 0x85F SWAP1 SWAP6 SWAP4 SWAP6 PUSH2 0xD53 JUMP JUMPDEST SWAP6 PUSH2 0x869 DUP7 PUSH2 0xD05 JUMP JUMPDEST POP ADD SLOAD SWAP1 SHR AND DUP2 ADD DUP1 SWAP2 GT PUSH2 0x883 JUMPI SWAP2 PUSH2 0x84B CODESIZE DUP1 PUSH2 0x83F JUMP JUMPDEST PUSH4 0x4E487B71 PUSH1 0xE0 SHL DUP3 MSTORE PUSH1 0x11 DUP8 MSTORE PUSH1 0x24 DUP3 REVERT JUMPDEST POP CALLVALUE PUSH2 0x16D JUMPI PUSH1 0x20 CALLDATASIZE PUSH1 0x3 NOT ADD SLT PUSH2 0x16D JUMPI CALLDATALOAD PUSH1 0x1 PUSH1 0x1 PUSH1 0xA0 SHL SUB DUP2 AND SWAP1 DUP2 SWAP1 SUB PUSH2 0x16D JUMPI DUP2 PUSH1 0x40 SWAP2 PUSH1 0x20 SWAP4 MSTORE PUSH1 0x2 DUP4 MSTORE KECCAK256 SLOAD PUSH1 0x40 MLOAD SWAP1 DUP2 MSTORE RETURN JUMPDEST DUP3 CALLVALUE PUSH2 0x18E JUMPI DUP1 PUSH1 0x3 NOT CALLDATASIZE ADD SLT PUSH2 0x18E JUMPI DUP1 SLOAD DUP2 SWAP1 DUP2 DUP1 DUP1 DUP1 DUP1 JUMPDEST DUP6 DUP2 LT PUSH2 0x919 JUMPI POP PUSH1 0xC0 SWAP7 POP PUSH1 0x40 MLOAD SWAP6 DUP7 MSTORE PUSH1 0x20 DUP7 ADD MSTORE PUSH1 0x40 DUP6 ADD MSTORE PUSH1 0x60 DUP5 ADD MSTORE PUSH1 0x80 DUP4 ADD MSTORE PUSH1 0xA0 DUP3 ADD MSTORE RETURN JUMPDEST DUP1 DUP9 MSTORE PUSH1 0x20 PUSH1 0x1 DUP2 MSTORE PUSH1 0x40 DUP10 KECCAK256 PUSH2 0x92E PUSH2 0x136B JUMP JUMPDEST SWAP1 SLOAD SWAP1 PUSH1 0xFF SWAP1 DUP2 DUP4 AND ISZERO ISZERO DUP1 DUP3 MSTORE DUP5 DUP3 ADD SWAP2 DUP4 DUP6 PUSH1 0x8 SHR AND ISZERO ISZERO DUP4 MSTORE PUSH2 0x120 PUSH1 0x40 DUP3 ADD SWAP5 DUP1 DUP8 PUSH1 0x10 SHR AND ISZERO ISZERO DUP7 MSTORE PUSH1 0x60 DUP4 ADD SWAP7 DUP2 DUP2 PUSH1 0x18 SHR AND ISZERO ISZERO DUP9 MSTORE DUP2 DUP2 PUSH1 0x80 DUP7 ADD SWAP11 SHR AND ISZERO ISZERO DUP10 MSTORE DUP2 DUP2 PUSH1 0x28 SHR AND ISZERO ISZERO PUSH1 0xA0 DUP6 ADD MSTORE DUP2 DUP2 PUSH1 0x30 SHR AND ISZERO ISZERO PUSH1 0xC0 DUP6 ADD MSTORE DUP2 DUP2 PUSH1 0x38 SHR AND ISZERO ISZERO PUSH1 0xE0 DUP6 ADD MSTORE DUP2 DUP2 PUSH1 0x40 SHR AND ISZERO ISZERO PUSH2 0x100 DUP6 ADD MSTORE PUSH1 0x48 SHR AND ISZERO ISZERO SWAP2 ADD MSTORE PUSH2 0xA26 JUMPI JUMPDEST MLOAD PUSH2 0xA16 JUMPI JUMPDEST MLOAD PUSH2 0xA06 JUMPI JUMPDEST MLOAD PUSH2 0x9F6 JUMPI JUMPDEST MLOAD PUSH2 0x9E1 JUMPI JUMPDEST PUSH2 0x9DC SWAP1 PUSH2 0xD53 JUMP JUMPDEST PUSH2 0x8EC JUMP JUMPDEST SWAP4 PUSH2 0x9EE PUSH2 0x9DC SWAP2 PUSH2 0xD53 JUMP JUMPDEST SWAP5 SWAP1 POP PUSH2 0x9D3 JUMP JUMPDEST SWAP4 PUSH2 0xA00 SWAP1 PUSH2 0xD53 JUMP JUMPDEST SWAP4 PUSH2 0x9CD JUMP JUMPDEST SWAP4 PUSH2 0xA10 SWAP1 PUSH2 0xD53 JUMP JUMPDEST SWAP4 PUSH2 0x9C7 JUMP JUMPDEST SWAP4 PUSH2 0xA20 SWAP1 PUSH2 0xD53 JUMP JUMPDEST SWAP4 PUSH2 0x9C1 JUMP JUMPDEST SWAP10 PUSH2 0xA30 SWAP1 PUSH2 0xD53 JUMP JUMPDEST SWAP10 PUSH2 0x9BB JUMP JUMPDEST POP CALLVALUE PUSH2 0x16D JUMPI PUSH1 0x20 CALLDATASIZE PUSH1 0x3 NOT ADD SLT PUSH2 0x16D JUMPI PUSH2 0x1A0 SWAP2 PUSH2 0xAB4 PUSH2 0xAB9 SWAP3 CALLDATALOAD SWAP2 DUP1 PUSH2 0x180 PUSH2 0xA61 PUSH2 0x134A JUMP JUMPDEST DUP3 DUP2 MSTORE DUP3 PUSH1 0x20 DUP3 ADD MSTORE DUP3 PUSH1 0x40 DUP3 ADD MSTORE DUP3 PUSH1 0x60 DUP3 ADD MSTORE DUP3 PUSH1 0x80 DUP3 ADD MSTORE DUP3 PUSH1 0xA0 DUP3 ADD MSTORE DUP3 PUSH1 0xC0 DUP3 ADD MSTORE DUP3 PUSH1 0xE0 DUP3 ADD MSTORE DUP3 PUSH2 0x100 DUP3 ADD MSTORE DUP3 PUSH2 0x120 DUP3 ADD MSTORE DUP3 PUSH2 0x140 DUP3 ADD MSTORE DUP3 PUSH2 0x160 DUP3 ADD MSTORE ADD MSTORE SLOAD DUP3 LT PUSH2 0x138C JUMP JUMPDEST PUSH2 0xD05 JUMP JUMPDEST POP PUSH2 0x180 PUSH2 0xAC5 PUSH2 0x134A JUMP JUMPDEST PUSH1 0xFF PUSH1 0x2 DUP5 SLOAD SWAP5 DUP3 DUP7 AND DUP5 MSTORE DUP3 DUP7 PUSH1 0x8 SHR AND PUSH1 0x20 DUP6 ADD MSTORE PUSH1 0x1 DUP2 ADD SLOAD PUSH1 0x40 DUP6 ADD MSTORE ADD SLOAD DUP2 DUP2 AND PUSH1 0x60 DUP5 ADD MSTORE DUP2 DUP2 PUSH1 0x8 SHR AND PUSH1 0x80 DUP5 ADD MSTORE DUP2 DUP2 PUSH1 0x10 SHR AND PUSH1 0xA0 DUP5 ADD MSTORE DUP2 DUP2 PUSH1 0x18 SHR AND PUSH1 0xC0 DUP5 ADD MSTORE DUP2 DUP2 PUSH1 0x20 SHR AND PUSH1 0xE0 DUP5 ADD MSTORE DUP2 DUP2 PUSH1 0x28 SHR AND PUSH2 0x100 DUP5 ADD MSTORE DUP2 DUP2 PUSH1 0x30 SHR AND PUSH2 0x120 DUP5 ADD MSTORE DUP2 DUP2 PUSH1 0x38 SHR AND PUSH2 0x140 DUP5 ADD MSTORE DUP2 DUP2 PUSH1 0x40 SHR AND ISZERO ISZERO PUSH2 0x160 DUP5 ADD MSTORE PUSH1 0x48 SHR AND ISZERO ISZERO DUP3 DUP3 ADD MSTORE PUSH1 0xFF PUSH1 0x40 MLOAD SWAP4 AND DUP4 MSTORE PUSH1 0xFF PUSH1 0x20 DUP3 ADD MLOAD AND PUSH1 0x20 DUP5 ADD MSTORE PUSH1 0x40 DUP2 ADD MLOAD PUSH1 0x40 DUP5 ADD MSTORE PUSH1 0xFF PUSH1 0x60 DUP3 ADD MLOAD AND PUSH1 0x60 DUP5 ADD MSTORE PUSH1 0xFF PUSH1 0x80 DUP3 ADD MLOAD AND PUSH1 0x80 DUP5 ADD MSTORE PUSH1 0xFF PUSH1 0xA0 DUP3 ADD MLOAD AND PUSH1 0xA0 DUP5 ADD MSTORE PUSH1 0xFF PUSH1 0xC0 DUP3 ADD MLOAD AND PUSH1 0xC0 DUP5 ADD MSTORE PUSH1 0xFF PUSH1 0xE0 DUP3 ADD MLOAD AND PUSH1 0xE0 DUP5 ADD MSTORE PUSH1 0xFF PUSH2 0x100 DUP3 ADD MLOAD AND PUSH2 0x100 DUP5 ADD MSTORE PUSH1 0xFF PUSH2 0x120 DUP3 ADD MLOAD AND PUSH2 0x120 DUP5 ADD MSTORE PUSH1 0xFF PUSH2 0x140 DUP3 ADD MLOAD AND PUSH2 0x140 DUP5 ADD MSTORE PUSH2 0x160 DUP2 ADD MLOAD ISZERO ISZERO PUSH2 0x160 DUP5 ADD MSTORE ADD MLOAD ISZERO ISZERO PUSH2 0x180 DUP3 ADD MSTORE RETURN JUMPDEST SWAP2 SWAP1 POP CALLVALUE PUSH2 0x3B2 JUMPI PUSH1 0x20 CALLDATASIZE PUSH1 0x3 NOT ADD SLT PUSH2 0x3B2 JUMPI CALLDATALOAD PUSH1 0x1 PUSH1 0x1 PUSH1 0xA0 SHL SUB DUP2 AND SWAP1 DUP2 SWAP1 SUB PUSH2 0x3B2 JUMPI PUSH1 0x40 DUP4 PUSH1 0xFF SWAP3 PUSH1 0x20 SWAP6 MSTORE PUSH1 0x3 DUP6 MSTORE KECCAK256 SLOAD AND ISZERO ISZERO DUP2 MSTORE RETURN JUMPDEST PUSH2 0x144 CALLDATALOAD SWAP1 DUP2 ISZERO ISZERO DUP3 SUB PUSH2 0xC4E JUMPI JUMP JUMPDEST PUSH1 0x0 DUP1 REVERT JUMPDEST PUSH2 0x164 CALLDATALOAD SWAP1 DUP2 ISZERO ISZERO DUP3 SUB PUSH2 0xC4E JUMPI JUMP JUMPDEST PUSH1 0x4 CALLDATALOAD SWAP1 PUSH1 0xFF DUP3 AND DUP3 SUB PUSH2 0xC4E JUMPI JUMP JUMPDEST PUSH1 0x24 CALLDATALOAD SWAP1 PUSH1 0xFF DUP3 AND DUP3 SUB PUSH2 0xC4E JUMPI JUMP JUMPDEST PUSH1 0x44 CALLDATALOAD SWAP1 PUSH1 0xFF DUP3 AND DUP3 SUB PUSH2 0xC4E JUMPI JUMP JUMPDEST PUSH1 0x64 CALLDATALOAD SWAP1 PUSH1 0xFF DUP3 AND DUP3 SUB PUSH2 0xC4E JUMPI JUMP JUMPDEST PUSH1 0x84 CALLDATALOAD SWAP1 PUSH1 0xFF DUP3 AND DUP3 SUB PUSH2 0xC4E JUMPI JUMP JUMPDEST PUSH1 0xA4 CALLDATALOAD SWAP1 PUSH1 0xFF DUP3 AND DUP3 SUB PUSH2 0xC4E JUMPI JUMP JUMPDEST PUSH1 0xC4 CALLDATALOAD SWAP1 PUSH1 0xFF DUP3 AND DUP3 SUB PUSH2 0xC4E JUMPI JUMP JUMPDEST PUSH1 0xE4 CALLDATALOAD SWAP1 PUSH1 0xFF DUP3 AND DUP3 SUB PUSH2 0xC4E JUMPI JUMP JUMPDEST PUSH2 0x104 CALLDATALOAD SWAP1 PUSH1 0xFF DUP3 AND DUP3 SUB PUSH2 0xC4E JUMPI JUMP JUMPDEST PUSH2 0x124 CALLDATALOAD SWAP1 PUSH1 0xFF DUP3 AND DUP3 SUB PUSH2 0xC4E JUMPI JUMP JUMPDEST SWAP1 PUSH1 0x0 SWAP2 DUP3 SLOAD DUP2 LT ISZERO PUSH2 0xD3F JUMPI PUSH1 0x3 SWAP1 DUP4 DUP1 MSTORE MUL PUSH32 0x290DECD9548B62A8D60345A988386FC84BA6BC95484008F6362F93160EF3E563 ADD SWAP2 SWAP1 JUMP JUMPDEST PUSH4 0x4E487B71 PUSH1 0xE0 SHL DUP4 MSTORE PUSH1 0x32 PUSH1 0x4 MSTORE PUSH1 0x24 DUP4 REVERT JUMPDEST PUSH1 0x0 NOT DUP2 EQ PUSH2 0xD62 JUMPI PUSH1 0x1 ADD SWAP1 JUMP JUMPDEST PUSH4 0x4E487B71 PUSH1 0xE0 SHL PUSH1 0x0 MSTORE PUSH1 0x11 PUSH1 0x4 MSTORE PUSH1 0x24 PUSH1 0x0 REVERT JUMPDEST CALLER PUSH1 0x0 MSTORE PUSH1 0x3 PUSH1 0x20 MSTORE PUSH1 0x40 PUSH1 0x0 KECCAK256 DUP1 SLOAD PUSH1 0xFF DUP2 AND ISZERO PUSH2 0xD95 JUMPI POP POP JUMP JUMPDEST PUSH1 0xFF NOT AND PUSH1 0x1 OR SWAP1 SSTORE PUSH1 0x5 SLOAD PUSH2 0xDAA SWAP1 PUSH2 0xD53 JUMP JUMPDEST PUSH1 0x5 SSTORE CALLER PUSH32 0x54DB7A5CB4735E1AAC1F53DB512D3390390BB6637BD30AD4BF9FC98667D9B9B9 PUSH1 0x0 DUP1 LOG2 JUMP JUMPDEST ISZERO PUSH2 0xDDC JUMPI JUMP JUMPDEST PUSH1 0x40 MLOAD PUSH3 0x461BCD PUSH1 0xE5 SHL DUP2 MSTORE PUSH1 0x20 PUSH1 0x4 DUP3 ADD MSTORE PUSH1 0x1C PUSH1 0x24 DUP3 ADD MSTORE PUSH32 0x5375727665792069732063757272656E746C7920696E61637469766500000000 PUSH1 0x44 DUP3 ADD MSTORE PUSH1 0x64 SWAP1 REVERT JUMPDEST SWAP11 SWAP9 SWAP5 SWAP3 SWAP7 SWAP4 SWAP1 SWAP10 SWAP8 SWAP6 SWAP2 SWAP10 PUSH2 0xE3B PUSH1 0xFF PUSH1 0x6 SLOAD AND PUSH2 0xDD5 JUMP JUMPDEST PUSH1 0x1 PUSH1 0xFF DUP14 AND LT ISZERO DUP1 PUSH2 0x133C JUMPI JUMPDEST ISZERO PUSH2 0x1300 JUMPI PUSH1 0xFF AND SWAP10 PUSH1 0x1 DUP12 LT ISZERO DUP1 PUSH2 0x12F5 JUMPI JUMPDEST ISZERO PUSH2 0x12BD JUMPI PUSH1 0xFF AND SWAP7 PUSH1 0x1 DUP9 LT ISZERO DUP1 PUSH2 0x12B2 JUMPI JUMPDEST ISZERO PUSH2 0x1276 JUMPI PUSH1 0xFF AND SWAP1 PUSH1 0x1 DUP3 LT ISZERO DUP1 PUSH2 0x126B JUMPI JUMPDEST ISZERO PUSH2 0x122E JUMPI PUSH1 0xFF AND SWAP2 PUSH1 0x17 DUP4 GT PUSH2 0x11F3 JUMPI PUSH1 0xFF AND SWAP4 PUSH1 0x1 DUP6 LT ISZERO DUP1 PUSH2 0x11E8 JUMPI JUMPDEST ISZERO PUSH2 0x11AE JUMPI PUSH1 0xFF AND SWAP5 PUSH1 0x1 DUP7 LT ISZERO DUP1 PUSH2 0x11A3 JUMPI JUMPDEST ISZERO PUSH2 0x116A JUMPI PUSH1 0xFF AND SWAP7 PUSH1 0x1 DUP9 LT ISZERO DUP1 PUSH2 0x115F JUMPI JUMPDEST ISZERO PUSH2 0x111A JUMPI PUSH2 0xEDA PUSH2 0x134A JUMP JUMPDEST SWAP11 PUSH1 0xFF DUP14 AND DUP13 MSTORE PUSH1 0x20 DUP13 ADD MSTORE TIMESTAMP PUSH1 0x40 DUP13 ADD MSTORE PUSH1 0x60 DUP12 ADD MSTORE PUSH1 0x80 DUP11 ADD MSTORE PUSH1 0xA0 DUP10 ADD MSTORE PUSH1 0xFF AND PUSH1 0xC0 DUP9 ADD MSTORE PUSH1 0xE0 DUP8 ADD MSTORE PUSH2 0x100 DUP7 ADD MSTORE PUSH1 0xFF AND PUSH2 0x120 DUP6 ADD MSTORE PUSH2 0x140 DUP5 ADD MSTORE ISZERO ISZERO PUSH2 0x160 DUP4 ADD MSTORE ISZERO ISZERO PUSH2 0x180 DUP3 ADD MSTORE PUSH1 0x0 SLOAD PUSH9 0x10000000000000000 DUP2 LT ISZERO PUSH2 0x1104 JUMPI DUP1 PUSH1 0x1 PUSH2 0xF51 SWAP3 ADD PUSH1 0x0 SSTORE PUSH2 0xD05 JUMP JUMPDEST PUSH2 0x10EE JUMPI DUP2 MLOAD DUP2 SLOAD PUSH1 0x20 DUP5 ADD MLOAD PUSH2 0xFF00 PUSH1 0x8 SWAP2 DUP3 SHL DUP2 AND PUSH1 0xFF SWAP5 DUP6 AND PUSH2 0xFFFF NOT SWAP5 DUP6 AND OR OR DUP6 SSTORE PUSH1 0x40 DUP7 ADD MLOAD PUSH1 0x1 DUP7 ADD SSTORE PUSH1 0x60 DUP7 ADD MLOAD PUSH1 0x2 SWAP1 SWAP6 ADD DUP1 SLOAD PUSH1 0x80 DUP9 ADD MLOAD SWAP1 SWAP4 SHL SWAP1 SWAP2 AND SWAP5 SWAP1 SWAP4 AND SWAP2 AND OR SWAP2 SWAP1 SWAP2 OR DUP2 SSTORE PUSH2 0x1067 SWAP2 PUSH2 0x180 SWAP1 PUSH1 0xA0 DUP2 ADD MLOAD DUP4 SLOAD PUSH4 0xFF000000 PUSH1 0xC0 DUP5 ADD MLOAD PUSH1 0x18 SHL AND PUSH5 0xFF00000000 PUSH1 0xE0 DUP6 ADD MLOAD PUSH1 0x20 SHL AND PUSH6 0xFF0000000000 PUSH2 0x100 DUP7 ADD MLOAD PUSH1 0x28 SHL AND SWAP2 PUSH7 0xFF000000000000 PUSH2 0x120 DUP8 ADD MLOAD PUSH1 0x30 SHL AND SWAP4 PUSH3 0xFF0000 PUSH1 0xFF PUSH1 0x38 SHL PUSH2 0x140 DUP10 ADD MLOAD PUSH1 0x38 SHL AND SWAP7 PUSH1 0x10 SHL AND SWAP1 PUSH8 0xFFFFFFFFFFFF0000 NOT AND OR OR OR OR OR OR DUP4 SSTORE PUSH2 0x104B PUSH2 0x160 DUP3 ADD MLOAD ISZERO ISZERO DUP5 SWAP1 PUSH1 0xFF PUSH1 0x40 SHL DUP3 SLOAD SWAP2 ISZERO ISZERO PUSH1 0x40 SHL AND SWAP1 PUSH1 0xFF PUSH1 0x40 SHL NOT AND OR SWAP1 SSTORE JUMP JUMPDEST ADD MLOAD DUP2 SLOAD PUSH1 0xFF PUSH1 0x48 SHL NOT AND SWAP1 ISZERO ISZERO PUSH1 0x48 SHL PUSH1 0xFF PUSH1 0x48 SHL AND OR SWAP1 SSTORE JUMP JUMPDEST PUSH1 0x0 SLOAD PUSH1 0x0 NOT DUP2 ADD SWAP2 SWAP1 DUP3 GT PUSH2 0xD62 JUMPI CALLER PUSH1 0x0 MSTORE PUSH1 0x2 PUSH1 0x20 MSTORE PUSH1 0x40 PUSH1 0x0 KECCAK256 PUSH2 0x108F DUP2 SLOAD PUSH2 0xD53 JUMP JUMPDEST SWAP1 SSTORE CALLER PUSH1 0x0 MSTORE PUSH1 0x3 PUSH1 0x20 MSTORE PUSH1 0xFF PUSH1 0x40 PUSH1 0x0 KECCAK256 SLOAD AND ISZERO PUSH2 0x10E1 JUMPI JUMPDEST PUSH1 0xFF PUSH1 0x40 MLOAD SWAP2 DUP4 DUP4 MSTORE AND PUSH1 0x20 DUP3 ADD MSTORE PUSH32 0xBDEFF1E317D92167948D89C90F200479EF8F5AEC5761BCB17804DBCFB2F729DB PUSH1 0x40 CALLER SWAP3 LOG2 SWAP1 JUMP JUMPDEST PUSH2 0x10E9 PUSH2 0xD78 JUMP JUMPDEST PUSH2 0x10A9 JUMP JUMPDEST PUSH4 0x4E487B71 PUSH1 0xE0 SHL PUSH1 0x0 MSTORE PUSH1 0x0 PUSH1 0x4 MSTORE PUSH1 0x24 PUSH1 0x0 REVERT JUMPDEST PUSH4 0x4E487B71 PUSH1 0xE0 SHL PUSH1 0x0 MSTORE PUSH1 0x41 PUSH1 0x4 MSTORE PUSH1 0x24 PUSH1 0x0 REVERT JUMPDEST PUSH1 0x40 MLOAD PUSH3 0x461BCD PUSH1 0xE5 SHL DUP2 MSTORE PUSH1 0x20 PUSH1 0x4 DUP3 ADD MSTORE PUSH1 0x18 PUSH1 0x24 DUP3 ADD MSTORE PUSH32 0x496E76616C6964206F766572616C6C2073657665726974790000000000000000 PUSH1 0x44 DUP3 ADD MSTORE PUSH1 0x64 SWAP1 REVERT JUMPDEST POP PUSH1 0xA DUP9 GT ISZERO PUSH2 0xECD JUMP JUMPDEST PUSH1 0x40 MLOAD PUSH3 0x461BCD PUSH1 0xE5 SHL DUP2 MSTORE PUSH1 0x20 PUSH1 0x4 DUP3 ADD MSTORE PUSH1 0x11 PUSH1 0x24 DUP3 ADD MSTORE PUSH17 0x496E76616C6964206167652072616E6765 PUSH1 0x78 SHL PUSH1 0x44 DUP3 ADD MSTORE PUSH1 0x64 SWAP1 REVERT JUMPDEST POP PUSH1 0x5 DUP7 GT ISZERO PUSH2 0xEB9 JUMP JUMPDEST PUSH1 0x40 MLOAD PUSH3 0x461BCD PUSH1 0xE5 SHL DUP2 MSTORE PUSH1 0x20 PUSH1 0x4 DUP3 ADD MSTORE PUSH1 0x12 PUSH1 0x24 DUP3 ADD MSTORE PUSH18 0x496E76616C696420636F6E666964656E6365 PUSH1 0x70 SHL PUSH1 0x44 DUP3 ADD MSTORE PUSH1 0x64 SWAP1 REVERT JUMPDEST POP PUSH1 0xA DUP6 GT ISZERO PUSH2 0xEA5 JUMP JUMPDEST PUSH1 0x40 MLOAD PUSH3 0x461BCD PUSH1 0xE5 SHL DUP2 MSTORE PUSH1 0x20 PUSH1 0x4 DUP3 ADD MSTORE PUSH1 0x13 PUSH1 0x24 DUP3 ADD MSTORE PUSH19 0x496E76616C69642074696D65206F6620646179 PUSH1 0x68 SHL PUSH1 0x44 DUP3 ADD MSTORE PUSH1 0x64 SWAP1 REVERT JUMPDEST PUSH1 0x40 MLOAD PUSH3 0x461BCD PUSH1 0xE5 SHL DUP2 MSTORE PUSH1 0x20 PUSH1 0x4 DUP3 ADD MSTORE PUSH1 0x15 PUSH1 0x24 DUP3 ADD MSTORE PUSH21 0x496E76616C696420736C656570207175616C697479 PUSH1 0x58 SHL PUSH1 0x44 DUP3 ADD MSTORE PUSH1 0x64 SWAP1 REVERT JUMPDEST POP PUSH1 0xA DUP3 GT ISZERO PUSH2 0xE85 JUMP JUMPDEST PUSH1 0x40 MLOAD PUSH3 0x461BCD PUSH1 0xE5 SHL DUP2 MSTORE PUSH1 0x20 PUSH1 0x4 DUP3 ADD MSTORE PUSH1 0x14 PUSH1 0x24 DUP3 ADD MSTORE PUSH20 0x125B9D985B1A59081CDD1C995CDCC81B195D995B PUSH1 0x62 SHL PUSH1 0x44 DUP3 ADD MSTORE PUSH1 0x64 SWAP1 REVERT JUMPDEST POP PUSH1 0xA DUP9 GT ISZERO PUSH2 0xE71 JUMP JUMPDEST PUSH1 0x40 MLOAD PUSH3 0x461BCD PUSH1 0xE5 SHL DUP2 MSTORE PUSH1 0x20 PUSH1 0x4 DUP3 ADD MSTORE PUSH1 0x10 PUSH1 0x24 DUP3 ADD MSTORE PUSH16 0x496E76616C6964207365766572697479 PUSH1 0x80 SHL PUSH1 0x44 DUP3 ADD MSTORE PUSH1 0x64 SWAP1 REVERT JUMPDEST POP PUSH1 0xA DUP12 GT ISZERO PUSH2 0xE5D JUMP JUMPDEST PUSH1 0x40 MLOAD PUSH3 0x461BCD PUSH1 0xE5 SHL DUP2 MSTORE PUSH1 0x20 PUSH1 0x4 DUP3 ADD MSTORE PUSH1 0x14 PUSH1 0x24 DUP3 ADD MSTORE PUSH20 0x496E76616C696420657069736F64652074797065 PUSH1 0x60 SHL PUSH1 0x44 DUP3 ADD MSTORE PUSH1 0x64 SWAP1 REVERT JUMPDEST POP PUSH1 0x4 PUSH1 0xFF DUP14 AND GT ISZERO PUSH2 0xE49 JUMP JUMPDEST PUSH1 0x40 MLOAD SWAP1 PUSH2 0x1A0 DUP3 ADD DUP3 DUP2 LT PUSH8 0xFFFFFFFFFFFFFFFF DUP3 GT OR PUSH2 0x1104 JUMPI PUSH1 0x40 MSTORE JUMP JUMPDEST PUSH1 0x40 MLOAD SWAP1 PUSH2 0x140 DUP3 ADD DUP3 DUP2 LT PUSH8 0xFFFFFFFFFFFFFFFF DUP3 GT OR PUSH2 0x1104 JUMPI PUSH1 0x40 MSTORE JUMP JUMPDEST ISZERO PUSH2 0x1393 JUMPI JUMP JUMPDEST PUSH1 0x40 MLOAD PUSH3 0x461BCD PUSH1 0xE5 SHL DUP2 MSTORE PUSH1 0x20 PUSH1 0x4 DUP3 ADD MSTORE PUSH1 0x16 PUSH1 0x24 DUP3 ADD MSTORE PUSH22 0x115C1A5CDBD91948191BD95CC81B9BDD08195E1A5CDD PUSH1 0x52 SHL PUSH1 0x44 DUP3 ADD MSTORE PUSH1 0x64 SWAP1 REVERT JUMPDEST SWAP10 SWAP9 SWAP8 SWAP6 SWAP4 SWAP2 SWAP7 SWAP5 SWAP3 SWAP1 SWAP10 PUSH1 0x0 SLOAD DUP2 LT PUSH2 0x13EA SWAP1 PUSH2 0x138C JUMP JUMPDEST PUSH2 0x13F2 PUSH2 0x136B JUMP JUMPDEST SWAP11 ISZERO ISZERO DUP12 MSTORE PUSH1 0x20 DUP12 ADD SWAP8 ISZERO ISZERO DUP9 MSTORE PUSH1 0x40 DUP12 ADD SWAP2 ISZERO ISZERO DUP3 MSTORE PUSH1 0x60 DUP12 ADD SWAP3 ISZERO ISZERO DUP4 MSTORE PUSH1 0x80 DUP12 ADD SWAP4 ISZERO ISZERO DUP5 MSTORE PUSH1 0xA0 DUP12 ADD SWAP5 ISZERO ISZERO DUP6 MSTORE PUSH1 0xC0 DUP12 ADD SWAP6 ISZERO ISZERO DUP7 MSTORE PUSH1 0xE0 DUP12 ADD SWAP7 ISZERO ISZERO DUP8 MSTORE PUSH2 0x100 DUP12 ADD SWAP9 ISZERO ISZERO DUP10 MSTORE PUSH2 0x120 DUP12 ADD SWAP10 ISZERO ISZERO DUP11 MSTORE PUSH1 0x0 MSTORE PUSH1 0x1 PUSH1 0x20 MSTORE PUSH1 0x40 PUSH1 0x0 KECCAK256 SWAP10 MLOAD ISZERO ISZERO SWAP7 DUP11 SLOAD SWAP1 MLOAD ISZERO ISZERO PUSH1 0x8 SHL PUSH2 0xFF00 AND SWAP2 MLOAD ISZERO ISZERO PUSH1 0x10 SHL PUSH3 0xFF0000 AND SWAP3 MLOAD ISZERO ISZERO PUSH1 0x18 SHL PUSH4 0xFF000000 AND SWAP4 MLOAD ISZERO ISZERO PUSH1 0x20 SHL PUSH5 0xFF00000000 AND SWAP5 MLOAD ISZERO ISZERO PUSH1 0x28 SHL PUSH6 0xFF0000000000 AND SWAP6 MLOAD ISZERO ISZERO PUSH1 0x30 SHL PUSH7 0xFF000000000000 AND SWAP7 MLOAD ISZERO ISZERO PUSH1 0x38 SHL PUSH1 0xFF PUSH1 0x38 SHL AND SWAP8 PUSH1 0xFF AND SWAP1 PUSH8 0xFFFFFFFFFFFFFFFF NOT AND OR OR OR OR OR OR OR OR DUP4 SSTORE MLOAD ISZERO ISZERO PUSH2 0x14FA SWAP1 DUP4 SWAP1 PUSH1 0xFF PUSH1 0x40 SHL DUP3 SLOAD SWAP2 ISZERO ISZERO PUSH1 0x40 SHL AND SWAP1 PUSH1 0xFF PUSH1 0x40 SHL NOT AND OR SWAP1 SSTORE JUMP JUMPDEST MLOAD DUP2 SLOAD PUSH1 0xFF PUSH1 0x48 SHL NOT AND SWAP1 ISZERO ISZERO PUSH1 0x48 SHL PUSH1 0xFF PUSH1 0x48 SHL AND OR SWAP1 SSTORE JUMP JUMPDEST ISZERO PUSH2 0x151C JUMPI JUMP JUMPDEST PUSH1 0x40 MLOAD PUSH3 0x461BCD PUSH1 0xE5 SHL DUP2 MSTORE PUSH1 0x20 PUSH1 0x4 DUP3 ADD MSTORE PUSH1 0x18 PUSH1 0x24 DUP3 ADD MSTORE PUSH32 0x4F6E6C79206F776E65722063616E2063616C6C20746869730000000000000000 PUSH1 0x44 DUP3 ADD MSTORE PUSH1 0x64 SWAP1 REVERT INVALID LOG2 PUSH5 0x6970667358 0x22 SLT KECCAK256 0x25 GAS CALLDATASIZE NOT 0x49 GASPRICE PUSH12 0x3B2CD9B7E3221BC0BCF3FF49 0x5C 0xF8 MLOAD SWAP5 0x5D CALLER DUP11 0xE1 0x25 0x5F PUSH18 0x887E64736F6C634300081300330000000000 "},"methodIdentifiers":{"addSymptoms(uint256,bool,bool,bool,bool,bool,bool,bool,bool,bool,bool)":"53e81649","episodeSymptoms(uint256)":"90abd5eb","episodes(uint256)":"86f328a9","getEpisode(uint256)":"23a4e563","getEpisodeSymptoms(uint256)":"b43b46eb","getSymptomFrequencies()":"2a2ba0bf","getTotalEpisodes()":"f0a5e92e","getWarningTimeStats()":"3e2ffae5","owner()":"8da5cb5b","registerParticipant()":"ccfc811b","registeredUsers(address)":"0e50cee5","reportEpisode(uint8,uint8,uint8,uint8,uint8,uint8,uint8,uint8,uint8,uint8,bool,bool)":"ecfec1e7","reportEpisodeComplete(uint8,uint8,uint8,uint8,uint8,uint8,uint8,uint8,uint8,uint8,bool,bool,bool,bool,bool,bool,bool,bool,bool,bool,bool,bool)":"7423ed04","surveyActive()":"b52363aa","toggleSurvey()":"5864d596","totalParticipants()":"a26dbf26","transferOwnership(address)":"f2fde38b","userEpisodeCount(address)":"2b1543b8"}}}}}