{
  "_format": "hh-sol-artifact-1",
  "contractName": "NarcolepsyEarlyWarning",
  "sourceName": "contracts/NarcolepsyEarlyWarning.sol",
  "abi": [
    {
      "inputs": [],
      "stateMutability": "nonpayable",
      "type": "constructor"
    },
    {
      "anonymous": false,
      "inputs": [
        {
          "indexed": true,
          "internalType": "address",
          "name": "reporter",
          "type": "address"
        },
        {
          "indexed": false,
          "internalType": "uint256",
          "name": "episodeId",
          "type": "uint256"
        },
        {
          "indexed": false,
          "internalType": "uint8",
          "name": "episodeType",
          "type": "uint8"
        }
      ],
      "name": "EpisodeReported",
      "type": "event"
    },
    {
      "anonymous": false,
      "inputs": [
        {
          "indexed": true,
          "internalType": "address",
          "name": "user",
          "type": "address"
        }
      ],
      "name": "UserRegistered",
      "type": "event"
    },
    {
      "inputs": [
        {
          "internalType": "uint256",
          "name": "_episodeId",
          "type": "uint256"
        },
        {
          "internalType": "bool",
          "name": "_tempChange",
          "type": "bool"
        },
        {
          "internalType": "bool",
          "name": "_dizziness",
          "type": "bool"
        },
        {
          "internalType": "bool",
          "name": "_nausea",
          "type": "bool"
        },
        {
          "internalType": "bool",
          "name": "_tingling",
          "type": "bool"
        },
        {
          "internalType": "bool",
          "name": "_headache",
          "type": "bool"
        },
        {
          "internalType": "bool",
          "name": "_blurredVision",
          "type": "bool"
        },
        {
          "internalType": "bool",
          "name": "_moodChange",
          "type": "bool"
        },
        {
          "internalType": "bool",
          "name": "_cognitiveSlowing",
          "type": "bool"
        },
        {
          "internalType": "bool",
          "name": "_muscleWeakness",
          "type": "bool"
        },
        {
          "internalType": "bool",
          "name": "_restlessness",
          "type": "bool"
        }
      ],
      "name": "addSymptoms",
      "outputs": [],
      "stateMutability": "nonpayable",
      "type": "function"
    },
    {
      "inputs": [
        {
          "internalType": "uint256",
          "name": "",
          "type": "uint256"
        }
      ],
      "name": "episodeSymptoms",
      "outputs": [
        {
          "internalType": "bool",
          "name": "suddenTempChange",
          "type": "bool"
        },
        {
          "internalType": "bool",
          "name": "dizziness",
          "type": "bool"
        },
        {
          "internalType": "bool",
          "name": "nausea",
          "type": "bool"
        },
        {
          "internalType": "bool",
          "name": "tingling",
          "type": "bool"
        },
        {
          "internalType": "bool",
          "name": "headache",
          "type": "bool"
        },
        {
          "internalType": "bool",
          "name": "blurredVision",
          "type": "bool"
        },
        {
          "internalType": "bool",
          "name": "moodChange",
          "type": "bool"
        },
        {
          "internalType": "bool",
          "name": "cognitiveSlowing",
          "type": "bool"
        },
        {
          "internalType": "bool",
          "name": "muscleWeakness",
          "type": "bool"
        },
        {
          "internalType": "bool",
          "name": "restlessness",
          "type": "bool"
        }
      ],
      "stateMutability": "view",
      "type": "function"
    },
    {
      "inputs": [
        {
          "internalType": "uint256",
          "name": "",
          "type": "uint256"
        }
      ],
      "name": "episodes",
      "outputs": [
        {
          "internalType": "uint8",
          "name": "episodeType",
          "type": "uint8"
        },
        {
          "internalType": "uint8",
          "name": "episodeSeverity",
          "type": "uint8"
        },
        {
          "internalType": "uint256",
          "name": "episodeTimestamp",
          "type": "uint256"
        },
        {
          "internalType": "uint8",
          "name": "stressLevel",
          "type": "uint8"
        },
        {
          "internalType": "uint8",
          "name": "sleepQualityLastNight",
          "type": "uint8"
        },
        {
          "internalType": "uint8",
          "name": "timeOfDay",
          "type": "uint8"
        },
        {
          "internalType": "uint8",
          "name": "warningTimeMinutes",
          "type": "uint8"
        },
        {
          "internalType": "uint8",
          "name": "confidenceLevel",
          "type": "uint8"
        },
        {
          "internalType": "uint8",
          "name": "ageRange",
          "type": "uint8"
        },
        {
          "internalType": "uint8",
          "name": "yearsSinceDiagnosis",
          "type": "uint8"
        },
        {
          "internalType": "uint8",
          "name": "overallSeverity",
          "type": "uint8"
        },
        {
          "internalType": "bool",
          "name": "hadCaffeine",
          "type": "bool"
        },
        {
          "internalType": "bool",
          "name": "hadMeal",
          "type": "bool"
        }
      ],
      "stateMutability": "view",
      "type": "function"
    },
    {
      "inputs": [
        {
          "internalType": "uint256",
          "name": "_episodeId",
          "type": "uint256"
        }
      ],
      "name": "getEpisode",
      "outputs": [
        {
          "components": [
            {
              "internalType": "uint8",
              "name": "episodeType",
              "type": "uint8"
            },
            {
              "internalType": "uint8",
              "name": "episodeSeverity",
              "type": "uint8"
            },
            {
              "internalType": "uint256",
              "name": "episodeTimestamp",
              "type": "uint256"
            },
            {
              "internalType": "uint8",
              "name": "stressLevel",
              "type": "uint8"
            },
            {
              "internalType": "uint8",
              "name": "sleepQualityLastNight",
              "type": "uint8"
            },
            {
              "internalType": "uint8",
              "name": "timeOfDay",
              "type": "uint8"
            },
            {
              "internalType": "uint8",
              "name": "warningTimeMinutes",
              "type": "uint8"
            },
            {
              "internalType": "uint8",
              "name": "confidenceLevel",
              "type": "uint8"
            },
            {
              "internalType": "uint8",
              "name": "ageRange",
              "type": "uint8"
            },
            {
              "internalType": "uint8",
              "name": "yearsSinceDiagnosis",
              "type": "uint8"
            },
            {
              "internalType": "uint8",
              "name": "overallSeverity",
              "type": "uint8"
            },
            {
              "internalType": "bool",
              "name": "hadCaffeine",
              "type": "bool"
            },
            {
              "internalType": "bool",
              "name": "hadMeal",
              "type": "bool"
            }
          ],
          "internalType": "struct NarcolepsyEarlyWarning.EpisodeReport",
          "name": "",
          "type": "tuple"
        }
      ],
      "stateMutability": "view",
      "type": "function"
    },
    {
      "inputs": [
        {
          "internalType": "uint256",
          "name": "_episodeId",
          "type": "uint256"
        }
      ],
      "name": "getEpisodeSymptoms",
      "outputs": [
        {
          "components": [
            {
              "internalType": "bool",
              "name": "suddenTempChange",
              "type": "bool"
            },
            {
              "internalType": "bool",
              "name": "dizziness",
              "type": "bool"
            },
            {
              "internalType": "bool",
              "name": "nausea",
              "type": "bool"
            },
            {
              "internalType": "bool",
              "name": "tingling",
              "type": "bool"
            },
            {
              "internalType": "bool",
              "name": "headache",
              "type": "bool"
            },
            {
              "internalType": "bool",
              "name": "blurredVision",
              "type": "bool"
            },
            {
              "internalType": "bool",
              "name": "moodChange",
              "type": "bool"
            },
            {
              "internalType": "bool",
              "name": "cognitiveSlowing",
              "type": "bool"
            },
            {
              "internalType": "bool",
              "name": "muscleWeakness",
              "type": "bool"
            },
            {
              "internalType": "bool",
              "name": "restlessness",
              "type": "bool"
            }
          ],
          "internalType": "struct NarcolepsyEarlyWarning.Symptoms",
          "name": "",
          "type": "tuple"
        }
      ],
      "stateMutability": "view",
      "type": "function"
    },
    {
      "inputs": [],
      "name": "getSymptomFrequencies",
      "outputs": [
        {
          "internalType": "uint256",
          "name": "tempChangeCount",
          "type": "uint256"
        },
        {
          "internalType": "uint256",
          "name": "dizzinessCount",
          "type": "uint256"
        },
        {
          "internalType": "uint256",
          "name": "nauseaCount",
          "type": "uint256"
        },
        {
          "internalType": "uint256",
          "name": "tinglingCount",
          "type": "uint256"
        },
        {
          "internalType": "uint256",
          "name": "headacheCount",
          "type": "uint256"
        },
        {
          "internalType": "uint256",
          "name": "totalEpisodes",
          "type": "uint256"
        }
      ],
      "stateMutability": "view",
      "type": "function"
    },
    {
      "inputs": [],
      "name": "getTotalEpisodes",
      "outputs": [
        {
          "internalType": "uint256",
          "name": "",
          "type": "uint256"
        }
      ],
      "stateMutability": "view",
      "type": "function"
    },
    {
      "inputs": [],
      "name": "getWarningTimeStats",
      "outputs": [
        {
          "internalType": "uint256",
          "name": "averageWarningTime",
          "type": "uint256"
        },
        {
          "internalType": "uint256",
          "name": "episodesWithWarning",
          "type": "uint256"
        },
        {
          "internalType": "uint256",
          "name": "totalEpisodes",
          "type": "uint256"
        }
      ],
      "stateMutability": "view",
      "type": "function"
    },
    {
      "inputs": [],
      "name": "owner",
      "outputs": [
        {
          "internalType": "address",
          "name": "",
          "type": "address"
        }
      ],
      "stateMutability": "view",
      "type": "function"
    },
    {
      "inputs": [],
      "name": "registerParticipant",
      "outputs": [],
      "stateMutability": "nonpayable",
      "type": "function"
    },
    {
      "inputs": [
        {
          "internalType": "address",
          "name": "",
          "type": "address"
        }
      ],
      "name": "registeredUsers",
      "outputs": [
        {
          "internalType": "bool",
          "name": "",
          "type": "bool"
        }
      ],
      "stateMutability": "view",
      "type": "function"
    },
    {
      "inputs": [
        {
          "internalType": "uint8",
          "name": "_episodeType",
          "type": "uint8"
        },
        {
          "internalType": "uint8",
          "name": "_severity",
          "type": "uint8"
        },
        {
          "internalType": "uint8",
          "name": "_stressLevel",
          "type": "uint8"
        },
        {
          "internalType": "uint8",
          "name": "_sleepQuality",
          "type": "uint8"
        },
        {
          "internalType": "uint8",
          "name": "_timeOfDay",
          "type": "uint8"
        },
        {
          "internalType": "uint8",
          "name": "_warningMinutes",
          "type": "uint8"
        },
        {
          "internalType": "uint8",
          "name": "_confidence",
          "type": "uint8"
        },
        {
          "internalType": "uint8",
          "name": "_ageRange",
          "type": "uint8"
        },
        {
          "internalType": "uint8",
          "name": "_yearsSinceDiagnosis",
          "type": "uint8"
        },
        {
          "internalType": "uint8",
          "name": "_overallSeverity",
          "type": "uint8"
        },
        {
          "internalType": "bool",
          "name": "_hadCaffeine",
          "type": "bool"
        },
        {
          "internalType": "bool",
          "name": "_hadMeal",
          "type": "bool"
        }
      ],
      "name": "reportEpisode",
      "outputs": [
        {
          "internalType": "uint256",
          "name": "episodeId",
          "type": "uint256"
        }
      ],
      "stateMutability": "nonpayable",
      "type": "function"
    },
    {
      "inputs": [
        {
          "internalType": "uint8",
          "name": "_episodeType",
          "type": "uint8"
        },
        {
          "internalType": "uint8",
          "name": "_severity",
          "type": "uint8"
        },
        {
          "internalType": "uint8",
          "name": "_stressLevel",
          "type": "uint8"
        },
        {
          "internalType": "uint8",
          "name": "_sleepQuality",
          "type": "uint8"
        },
        {
          "internalType": "uint8",
          "name": "_timeOfDay",
          "type": "uint8"
        },
        {
          "internalType": "uint8",
          "name": "_warningMinutes",
          "type": "uint8"
        },
        {
          "internalType": "uint8",
          "name": "_confidence",
          "type": "uint8"
        },
        {
          "internalType": "uint8",
          "name": "_ageRange",
          "type": "uint8"
        },
        {
          "internalType": "uint8",
          "name": "_yearsSinceDiagnosis",
          "type": "uint8"
        },
        {
          "internalType": "uint8",
          "name": "_overallSeverity",
          "type": "uint8"
        },
        {
          "internalType": "bool",
          "name": "_hadCaffeine",
          "type": "bool"
        },
        {
          "internalType": "bool",
          "name": "_hadMeal",
          "type": "bool"
        },
        {
          "internalType": "bool",
          "name": "_tempChange",
          "type": "bool"
        },
        {
          "internalType": "bool",
          "name": "_dizziness",
          "type": "bool"
        },
        {
          "internalType": "bool",
          "name": "_nausea",
          "type": "bool"
        },
        {
          "internalType": "bool",
          "name": "_tingling",
          "type": "bool"
        },
        {
          "internalType": "bool",
          "name": "_headache",
          "type": "bool"
        },
        {
          "internalType": "bool",
          "name": "_blurredVision",
          "type": "bool"
        },
        {
          "internalType": "bool",
          "name": "_moodChange",
          "type": "bool"
        },
        {
          "internalType": "bool",
          "name": "_cognitiveSlowing",
          "type": "bool"
        },
        {
          "internalType": "bool",
          "name": "_muscleWeakness",
          "type": "bool"
        },
        {
          "internalType": "bool",
          "name": "_restlessness",
          "type": "bool"
        }
      ],
      "name": "reportEpisodeComplete",
      "outputs": [],
      "stateMutability": "nonpayable",
      "type": "function"
    },
    {
      "inputs": [],
      "name": "surveyActive",
      "outputs": [
        {
          "internalType": "bool",
          "name": "",
          "type": "bool"
        }
      ],
      "stateMutability": "view",
      "type": "function"
    },
    {
      "inputs": [],
      "name": "toggleSurvey",
      "outputs": [],
      "stateMutability": "nonpayable",
      "type": "function"
    },
    {
      "inputs": [],
      "name": "totalParticipants",
      "outputs": [
        {
          "internalType": "uint256",
          "name": "",
          "type": "uint256"
        }
      ],
      "stateMutability": "view",
      "type": "function"
    },
    {
      "inputs": [
        {
          "internalType": "address",
          "name": "newOwner",
          "type": "address"
        }
      ],
      "name": "transferOwnership",
      "outputs": [],
      "stateMutability": "nonpayable",
      "type": "function"
    },
    {
      "inputs": [
        {
          "internalType": "address",
          "name": "",
          "type": "address"
        }
      ],
      "name": "userEpisodeCount",
      "outputs": [
        {
          "internalType": "uint256",
          "name": "",
          "type": "uint256"
        }
      ],
      "stateMutability": "view",
      "type": "function"
    }
  ],
  "bytecode": "0x60808060405234610035576006805460ff19166001179055600480546001600160a01b03191633179055611597908161003b8239f35b600080fdfe60808060405260048036101561001457600080fd5b600091823560e01c9081630e50cee514610c005750806323a4e56314610a365780632a2ba0bf146108d15780632b1543b8146108965780633e2ffae5146107b357806353e81649146106fe5780635864d596146106c25780637423ed041461056857806386f328a9146104a35780638da5cb5b1461047c57806390abd5eb146103d4578063a26dbf26146103b6578063b43b46eb1461025b578063b52363aa14610238578063ccfc811b1461021c578063ecfec1e714610191578063f0a5e92e146101715763f2fde38b146100e857600080fd5b3461016d57602036600319011261016d5780356001600160a01b03818116918290036101695761011d83549182163314611515565b8115610133576001600160a01b03191617905580f35b60405162461bcd60e51b8152602081850152600f60248201526e496e76616c6964206164647265737360881b6044820152606490fd5b8380fd5b5080fd5b823461018e578060031936011261018e5760209054604051908152f35b80fd5b823461018e5761018036600319011261018e5760206102146101b1610c63565b6101b9610c73565b6101c1610c83565b6101c9610c93565b6101d1610ca3565b6101d9610cb3565b6101e1610cc3565b906101ea610cd3565b926101f3610ce3565b946101fc610cf4565b96610205610c3e565b9861020e610c53565b9a610e21565b604051908152f35b823461018e578060031936011261018e57610235610d78565b80f35b823461018e578060031936011261018e57602060ff600654166040519015158152f35b503461016d57602090816003193601126103b257916101409235604061027f61136b565b92808452808585015280828501528060608501528060808501528060a08501528060c08501528060e085015261010092818486015281610120809601526102c88254821061138c565b81526001855220906102d861136b565b9154809260ff80831615159687835280830190828560081c161515825260408401838660101c16151581526060850190848760181c161515825260808601928588821c161515845260a0870194868960281c161515865260c0880196808a60301c16151588528c60e08a0199828c60381c1615158b52828d82019c60401c1615158c52019b60481c1615158b526040519c8d52511515908c015251151560408b015251151560608a0152511515608089015251151560a088015251151560c087015251151560e08601525115159084015251151590820152f35b8280fd5b823461018e578060031936011261018e576020600554604051908152f35b503461016d57602036600319011261016d5761014091604091358152600160205220546040519060ff9081811615158352818160081c1615156020840152818160101c1615156040840152818160181c1615156060840152818160201c1615156080840152818160281c16151560a0840152818160301c16151560c0840152818160381c16151560e0840152818160401c16151561010084015260481c161515610120820152f35b503461016d578160031936011261016d57546040516001600160a01b039091168152602090f35b503461016d57602036600319011261016d573590805482101561018e576101a06104cc83610d05565b508054600260018301549201546040519260ff8381809516865260081c16602085015260408401528181166060840152818160081c166080840152818160101c1660a0840152818160181c1660c0840152818160201c1660e0840152818160281c16610100840152818160301c16610120840152818160381c16610140840152818160401c16151561016084015260481c161515610180820152f35b823461018e576102c036600319011261018e57610583610c63565b61058b610c73565b610593610c83565b61059b610c93565b6105a3610ca3565b906105ac610cb3565b926105b5610cc3565b946105be610cd3565b6105c6610ce3565b6105ce610cf4565b6105d6610c3e565b996105df610c53565b610184359b8c15158d036106be576101a4359384151585036106ba576101c4359586151587036106b6576101e4359788151589036106b15761020435151561020435036106b15761022435151561022435036106b15761024435151561024435036106b15761026435151561026435036106b15761028435151561028435036106b1576102a43515156102a435036106b15760065460ff1661068090610dd5565b6102a4359e610284359e610264359e610244359e610224359e610204359e6106a79b610e21565b996102359a6113d1565b508f80fd5b8f80fd5b8e80fd5b8d80fd5b503461016d578160031936011261016d57546106e8906001600160a01b03163314611515565b60065460ff80821615169060ff19161760065580f35b503461016d5761016036600319011261016d576024359081151582036103b25760443580151581036101695760643580151581036107af5760843580151581036107ab5760a43580151581036107a75760c4359081151582036107a35760e43592831515840361079f576101043594851515860361079b57610124359687151588036107975761023599610790610c3e565b99356113d1565b8a80fd5b8980fd5b8880fd5b8780fd5b8680fd5b8580fd5b8480fd5b50903461018e578060031936011261018e578054818080805b8481106108215750821580156107f4575b606086868660405192835260208301526040820152f35b909192945061080e575060609350829004913880806107dd565b634e487b7160e01b815260128552602490fd5b61082a81610d05565b5060ff60028092015481601891821c16610850575b50505061084b90610d53565b6107cc565b90919561085f90959395610d53565b9561086986610d05565b500154901c168101809111610883579161084b388061083f565b634e487b7160e01b825260118752602482fd5b503461016d57602036600319011261016d57356001600160a01b0381169081900361016d578160409160209352600283522054604051908152f35b823461018e578060031936011261018e578054819081808080805b858110610919575060c09650604051958652602086015260408501526060840152608083015260a0820152f35b8088526020600181526040892061092e61136b565b90549060ff90818316151580825284820191838560081c16151583526101206040820194808760101c16151586526060830196818160181c16151588528181608086019a1c1615158952818160281c16151560a0850152818160301c16151560c0850152818160381c16151560e0850152818160401c16151561010085015260481c161515910152610a26575b51610a16575b51610a06575b516109f6575b516109e1575b6109dc90610d53565b6108ec565b936109ee6109dc91610d53565b9490506109d3565b93610a0090610d53565b936109cd565b93610a1090610d53565b936109c7565b93610a2090610d53565b936109c1565b99610a3090610d53565b996109bb565b503461016d57602036600319011261016d576101a091610ab4610ab992359180610180610a6161134a565b8281528260208201528260408201528260608201528260808201528260a08201528260c08201528260e082015282610100820152826101208201528261014082015282610160820152015254821061138c565b610d05565b50610180610ac561134a565b60ff60028454948286168452828660081c1660208501526001810154604085015201548181166060840152818160081c166080840152818160101c1660a0840152818160181c1660c0840152818160201c1660e0840152818160281c16610100840152818160301c16610120840152818160381c16610140840152818160401c16151561016084015260481c1615158282015260ff6040519316835260ff60208201511660208401526040810151604084015260ff606082015116606084015260ff608082015116608084015260ff60a08201511660a084015260ff60c08201511660c084015260ff60e08201511660e084015260ff6101008201511661010084015260ff6101208201511661012084015260ff61014082015116610140840152610160810151151561016084015201511515610180820152f35b919050346103b25760203660031901126103b257356001600160a01b038116908190036103b25760408360ff92602095526003855220541615158152f35b61014435908115158203610c4e57565b600080fd5b61016435908115158203610c4e57565b6004359060ff82168203610c4e57565b6024359060ff82168203610c4e57565b6044359060ff82168203610c4e57565b6064359060ff82168203610c4e57565b6084359060ff82168203610c4e57565b60a4359060ff82168203610c4e57565b60c4359060ff82168203610c4e57565b60e4359060ff82168203610c4e57565b610104359060ff82168203610c4e57565b610124359060ff82168203610c4e57565b906000918254811015610d3f57600390838052027f290decd9548b62a8d60345a988386fc84ba6bc95484008f6362f93160ef3e563019190565b634e487b7160e01b83526032600452602483fd5b6000198114610d625760010190565b634e487b7160e01b600052601160045260246000fd5b3360005260036020526040600020805460ff811615610d95575050565b60ff19166001179055600554610daa90610d53565b600555337f54db7a5cb4735e1aac1f53db512d3390390bb6637bd30ad4bf9fc98667d9b9b9600080a2565b15610ddc57565b60405162461bcd60e51b815260206004820152601c60248201527f5375727665792069732063757272656e746c7920696e616374697665000000006044820152606490fd5b9a9894929693909997959199610e3b60ff60065416610dd5565b600160ff8d1610158061133c575b156113005760ff169960018b1015806112f5575b156112bd5760ff16966001881015806112b2575b156112765760ff169060018210158061126b575b1561122e5760ff1691601783116111f35760ff16936001851015806111e8575b156111ae5760ff16946001861015806111a3575b1561116a5760ff169660018810158061115f575b1561111a57610eda61134a565b9a60ff8d168c5260208c01524260408c015260608b015260808a015260a089015260ff1660c088015260e087015261010086015260ff16610120850152610140840152151561016083015215156101808201526000546801000000000000000081101561110457806001610f519201600055610d05565b6110ee5781518154602084015161ff00600891821b811660ff94851661ffff199485161717855560408601516001860155606086015160029095018054608088015190931b90911694909316911617919091178155611067916101809060a0810151835463ff00000060c084015160181b1664ff0000000060e085015160201b1665ff000000000061010086015160281b169166ff00000000000061012087015160301b169362ff000060ff60381b61014089015160381b169660101b169067ffffffffffff00001916171717171717835561104b6101608201511515849060ff60401b825491151560401b169060ff60401b1916179055565b0151815460ff60481b191690151560481b60ff60481b16179055565b600054600019810191908211610d6257336000526002602052604060002061108f8154610d53565b905533600052600360205260ff60406000205416156110e1575b60ff604051918383521660208201527fbdeff1e317d92167948d89c90f200479ef8f5aec5761bcb17804dbcfb2f729db60403392a290565b6110e9610d78565b6110a9565b634e487b7160e01b600052600060045260246000fd5b634e487b7160e01b600052604160045260246000fd5b60405162461bcd60e51b815260206004820152601860248201527f496e76616c6964206f766572616c6c20736576657269747900000000000000006044820152606490fd5b50600a881115610ecd565b60405162461bcd60e51b8152602060048201526011602482015270496e76616c6964206167652072616e676560781b6044820152606490fd5b506005861115610eb9565b60405162461bcd60e51b8152602060048201526012602482015271496e76616c696420636f6e666964656e636560701b6044820152606490fd5b50600a851115610ea5565b60405162461bcd60e51b8152602060048201526013602482015272496e76616c69642074696d65206f662064617960681b6044820152606490fd5b60405162461bcd60e51b8152602060048201526015602482015274496e76616c696420736c656570207175616c69747960581b6044820152606490fd5b50600a821115610e85565b60405162461bcd60e51b8152602060048201526014602482015273125b9d985b1a59081cdd1c995cdcc81b195d995b60621b6044820152606490fd5b50600a881115610e71565b60405162461bcd60e51b815260206004820152601060248201526f496e76616c696420736576657269747960801b6044820152606490fd5b50600a8b1115610e5d565b60405162461bcd60e51b8152602060048201526014602482015273496e76616c696420657069736f6465207479706560601b6044820152606490fd5b50600460ff8d161115610e49565b604051906101a0820182811067ffffffffffffffff82111761110457604052565b60405190610140820182811067ffffffffffffffff82111761110457604052565b1561139357565b60405162461bcd60e51b8152602060048201526016602482015275115c1a5cdbd91948191bd95cc81b9bdd08195e1a5cdd60521b6044820152606490fd5b999897959391969492909960005481106113ea9061138c565b6113f261136b565b9a15158b5260208b01971515885260408b01911515825260608b01921515835260808b01931515845260a08b01941515855260c08b01951515865260e08b0196151587526101008b0198151589526101208b019915158a526000526001602052604060002099511515968a549051151560081b61ff00169151151560101b62ff0000169251151560181b63ff000000169351151560201b64ff00000000169451151560281b65ff0000000000169551151560301b66ff000000000000169651151560381b60ff60381b169760ff169067ffffffffffffffff1916171717171717171783555115156114fa90839060ff60401b825491151560401b169060ff60401b1916179055565b51815460ff60481b191690151560481b60ff60481b16179055565b1561151c57565b60405162461bcd60e51b815260206004820152601860248201527f4f6e6c79206f776e65722063616e2063616c6c207468697300000000000000006044820152606490fdfea2646970667358221220255a3619493a6b3b2cd9b7e3221bc0bcf3ff495cf851945d338ae1255f71887e64736f6c63430008130033",
  "linkReferences": {},
  "deployedLinkReferences": {}
}